:100000000C9462010C947F010C947F010C947F018D
:100010000C947F010C947F010C947F010C947F0160
:100020000C947F010C947F010C94681C0C943C1D73
:100030000C944C170C947F010C947F010C947F015D
:100040000C947F010C947F010C947F010C947F0130
:100050000C947F010C94D3170C947F010C947F01B6
:100060000C947F010C947F010C947F010C947F0110
:100070000C947F010C947F010C947F010C947F0100
:100080000C947F010C947F010C947F010C947F01F0
:100090000C947F010C947F010C947F010C947F01E0
:1000A0000C947F010C947F010C947F0114001A00C2
:1000B0000800150017001C0018000C0012001300A7
:1000C00004001600070009000A000B000D000E00D6
:1000D0000F00AF5D1D001B00060019002C002C0056
:1000E000050011001000B05D2B001E001F00200055
:1000F00021002200000049004B004C003900230081
:10010000240025002600270000004A004E000000C1
:10011000E100E000E300E2002C002C00E6007600A5
:10012000E4000000290000000000000000000000C2
:100130002F00300031002A000000000052000000B3
:1001400000000000330034002800000000005000D0
:1001500051004F002C002C00360037003800000002
:100160000E0370006F0063006B00650074000000F8
:100170000A03500065006B006500000004030904D9
:1001800009023B00020100A0FA090400000103017A
:100190000100092111010001224000070581030827
:1001A0000001090401000103000000092111010000
:1001B0000122B6000705820320000112010002009F
:1001C0000000086B70010001000102000105010937
:1001D00002A10185020901A10005091901290815DB
:1001E00000250195087501810205010930093115C5
:1001F00081257F95027508810609381581257F952F
:100200000175088106050C0A38021581257F9501C4
:1002100075088106C0C005010980A1018503190187
:100220002AB700150126B700950175108100C00599
:100230000C0901A101850419012AA002150126A0BB
:1002400002950175108100C005010906A10185060E
:10025000050719E029E715002501950875018102B8
:100260000507190029EF1500250195F07501810298
:100270000508190129059505750191029501750378
:100280009101C005010906A101050719E029E7153B
:100290000025019508750181029501750881010508
:1002A00007190029FF150026FF0095067508810033
:1002B0000508190129059505750191029501750338
:1002C0009101C00011241FBECFEFDAE0DEBFCDBF29
:1002D00011E0A0E0B1E0EEE5FFE302C005900D9271
:1002E000A638B107D9F722E0A6E8B1E001C01D9217
:1002F000A139B207E1F70E9421110C94971F0C94C9
:10030000000081E0089581E008950E94830108952E
:1003100008950E9488010895A5E0B0E0E2E9F1E0C7
:100320000C940C1F49835A833091890189819A81E9
:10033000311119C0662399F0222389F00E94080820
:10034000182F682F89819A810E94E40769817A8138
:10035000812F0E948F0E2596E3E00C94281F0E94A7
:10036000F607182FF3CF0E94080869817A81F1CF30
:10037000FC01262F408151816281738184810E941A
:100380008C01089581E00895CF93DF93EC0160E044
:100390000E94B801BE010E948901DF91CF910895AA
:1003A0000E94CB0F08950E94CF0F089508950E94D8
:1003B00033060E94D6012FEF84E39CE02150804059
:1003C0009040E1F700C0000008950E94D7010E940C
:1003D000F71708950E94D7010E94081808950F93F7
:1003E0001F93CF93DF938C0161E00E94B801EC0171
:1003F000B8010E948501811106C080E0DF91CF9194
:100400001F910F910895B801CE010E947D15882398
:10041000A1F3B801CE010E94B213882371F3B80191
:10042000CE010E94EF14882341F3F80182818823D2
:1004300061F0CB35FDE5DF0701F158F4C115ECE5BE
:10044000DE0791F0CF3DDC4591F0C8010E948101AB
:10045000D5CFCD358DE5D80769F090F0C83ADD45A8
:10046000A1F70E94EA01C9CF0E94E501C6CF0E9410
:10047000CE0CF7CF0E94080CE8CF0E94120CE5CFFB
:100480000E94160CE2CF0E9428170E946002089575
:100490000E9464020E942D17089508950E944D0243
:1004A000089581E008950E94510208950895CF9320
:1004B000C82F0E944E028C2F0E945302CF910895A4
:1004C00080E00E94570208950E94D9150E945702A9
:1004D00008950E94D91590918801981721F0809372
:1004E00088010E9457020895ABE0B0E0EAE7F2E02D
:1004F0000C940D1F4F83588769877A878B8761110A
:100500000E94530B1E821D8285E0FE013796DE019C
:10051000119601900D928A95E1F78C819D81892B2E
:1005200061F449815A816B817C818D819E810E9419
:100530007C0A2B96E2E00C94291F89819A818923F9
:100540008F3F79F3CE0101960E94C2018111E9CF5C
:10055000F0CFFC01808191810E9442080895CF93E1
:10056000C82F8823C9F08238C9F40E94D91581FDAB
:1005700013C089E30E940B0B0E94740B2FEF81EED6
:1005800094E0215080409040E1F700C0000089E3F2
:100590000E94130B0E94740BCF9108958338A1F42D
:1005A0000E94D91580FDF8CF83E50E940B0B0E94B5
:1005B000740B2FEF81EE94E0215080409040E1F7E2
:1005C00000C0000083E5E4CF8438A1F40E94D9156F
:1005D00082FDE2CF87E40E940B0B0E94740B2FEF89
:1005E00081EE94E0215080409040E1F700C000008F
:1005F00087E4CECF8CEF8C0F813A90F46C2F8091F2
:100600000001909101010E944E16882329F08C2F41
:100610000E94130B0E94740B8C2F0E940B0BBACFFD
:1006200080E28C0F883048F4C77081E001C0880FE9
:10063000CA95EAF70E94360BADCFEBE5EC0FE3303D
:1006400040F4F0E0EB5BFE4F808190E00E940E16DC
:10065000A3CFE8E5EC0FE73150F4F0E0EE0FFF1F19
:10066000E95EFE4F808191810E94241695CFCD3E98
:1006700008F492CF8C2F0E94A5110E9478128CCF83
:10068000882309F455C0823879F40E94D91581FF76
:100690004FC089E30E940B0B0E94740B89E30E94F8
:1006A000130B0E94740B0895833859F40E94D915D6
:1006B00080FF3EC083E50E940B0B0E94740B83E514
:1006C000EECF843859F40E94D91582FF31C087E4F7
:1006D0000E940B0B0E94740B87E4E1CF9CEF980FF4
:1006E000913AE8F290E2980F983050F4877091E0D8
:1006F00001C0990F8A95EAF7892F0E943C0BD1CF50
:100700009BE5980F933028F490E080E00E940E164D
:10071000089598E5980F973128F490E080E00E94C2
:10072000241608958D3E20F00E94FF110E94781239
:1007300008951F93CF93DF93182FEB010E94AF0210
:10074000209739F4812F0E944003DF91CF911F91B0
:1007500008958FE99FE00197F1F700C0000021970D
:10076000EFCF70E060E0893311F460E570E00E9443
:1007700099030895882321F00E94360B0E94740B80
:100780000895882321F00E943C0B0E94740B089569
:10079000B0E0A0E0EEECF3E00C94061F6C01D62F65
:1007A000C72FFC011281F580F2949FE0F9220E948C
:1007B0002C0BE82E8823B9F0E12E1123A1F08C2F09
:1007C000807F803421F080E28D0F8830D0F08091DE
:1007D000730282FF16C082E00E94D70B0E942C0B8E
:1007E00091E0E82EE926BC2EB2948FE0B822FBE01F
:1007F000FB1508F468C0EB2DF0E0E756F04E0C94C2
:10080000F71EE12CF0CF0C2F0F70C07F11F0029576
:10081000007F112399F0002359F080E28D0F88307A
:1008200010F0D11107C0802F0E94360B0E94740B6C
:100830008D2F41C0802F0E94460BF8CF8D2F0E9434
:100840004003002309F43FC080E28D0F883010F090
:10085000D11104C0802F0E943C0B03C0802F0E9446
:100860004C0B0E94740B2FC00C2F0F70C07FC03236
:1008700011F00295007FDD2381F0D13009F463C0CF
:10088000112309F46DC0FF2009F463C0F6018581CE
:1008900080FFCECF8F7085835CC08091730282FD14
:1008A00033C0112359F0002329F0802F0E94360B0A
:1008B0000E94740B80E00E94AF0205C080E00E949D
:1008C00040030111C7CFEB2DE850FF0B349720F404
:1008D0000E94D9150E945702EE2089F00E94280B31
:1008E00080FD0DC0F60112820E94220B0E94EC06D0
:1008F000C6010E94F3050E94220B0E940E07CDB78D
:10090000DEB7E9E00C94221F112389F0F11006C034
:100910000E94560B802B0E94BA03D5CF21E0F21221
:10092000F7CF0E94560B802B0E945D0BCCCFF110AD
:1009300006C00E946A0B802F0E94C103C4CF31E021
:10094000F31609F2F6CF112331F085E08F1508F484
:10095000BACF802FE0CF94E09F1508F4B4CFEBCF4F
:10096000FF2049F3D93349F4FFEF27EE33E0F1508C
:1009700020403040E1F700C000008D2F0E9440036E
:10098000A2CF8C2F86958695837069F0813009F00F
:100990009ACF8D2F9C2F9370111102C090E080E0B0
:1009A0000E94241690CF8D2F9C2F9370111102C09E
:1009B00090E080E00E940E1686CF8D2F112329F043
:1009C0000E94A5110E9478127ECF0E94FF11FACFDB
:1009D0008C2F837009F041C0111175CF4D2F4295B6
:1009E00046954770440F440F0D2F0F7010E030E014
:1009F00020E0042E04C0000F111F221F331F0A9491
:100A0000D2F760E070E0CB01D4FF0FC06FE070E080
:100A100080E090E004C0660F771F881F991F4A95F9
:100A2000D2F76095709580959095C695C695C370E0
:100A3000602B712B822B932BC23049F058F4C130BC
:100A400019F00E9497063FCF0E9484063CCF0E9477
:100A5000AA0639CF0E94810636CF8695112311F060
:100A60008C2F8170882309F42ECF4D2F4295469507
:100A70004770440F440F0D2F0F7010E030E020E05E
:100A8000042E04C0000F111F221F331F0A94D2F737
:100A900060E070E0CB01D4FF0FC06FE070E080E059
:100AA00090E004C0660F771F881F991F4A95D2F700
:100AB0006095709580959095C695C695C370602B8E
:100AC000712B822B932BC23049F058F4C13019F0AE
:100AD0000E946707F8CE0E945407F5CE0E947A075D
:100AE000F2CE0E94C306EFCECF70112329F08C2FD7
:100AF0000E94EC068D2F0FCF8D2F0E94C1038C2FEB
:100B00000E940E07E0CED23F51F160F4D03FB9F021
:100B1000D13F81F0112309F449C0F11089CE8C2F07
:100B20008F7121C0D33F11F1D43FA1F7809173029F
:100B300082FD26C08C2F8F71112311F314C0112355
:100B400049F084E08F1508F4BECE8C2F8F710E947F
:100B50003207B9CE95E09F1508F4B5CEF6CF8C2FAD
:100B60008F711111CDCF0E94EC06ADCE112329F06B
:100B70008C2F8F710E94D606A6CE0E94D006A3CEDF
:100B8000112349F0CF718C2F0E94EC0663E08C2F6B
:100B90000E94B90B98CE81E00E94D70BE1E0EF15DF
:100BA00008F091CE82E00E94D70B8DCEF110DACE04
:100BB0008C2F8F71A5CF0F931F93CF93DF93EC01F1
:100BC000688179818A810E944D088C010E948D077D
:100BD0000E948006B801CE010E94C803DF91CF9128
:100BE0001F910F910895CF93DF93EC018B819C812E
:100BF000892B29F08881998189238F3F51F4DF91D6
:100C0000CF910895CE010E94DB05CE010E94C40160
:100C1000F6CFCE010E94EF018111F4CF0E942C0B80
:100C2000882369F38A81882351F38091730282FFBC
:100C3000E6CF82E00E94D70BE2CF90E080E00E94F6
:100C40000E1690E080E00E9424160E94530B0E9432
:100C5000740B0E9494120E94781208950E941B0B3C
:100C60000E941D0608950E94430B0E942E060895BF
:100C700092959F70963091F058F4925F9F709230E9
:100C800058F4803F19F030F4883E30F481E0089544
:100C90009A5FF4CF843FD1F380E00895883EB0F3AB
:100CA000813FD1F7F3CFFC01808191810E944208FE
:100CB0000E9438060895A5E0B0E0E1E6F6E00C9465
:100CC0000D1F2596E2E00C94291FA6E0B0E0EBE6AC
:100CD000F6E00C940D1F2696E2E00C94291F08956F
:100CE0000E946F0608950E9470066093A20170939F
:100CF000A3018093A4019093A5010E941D0608956D
:100D000008950E94730608950F931F930091A20106
:100D10001091A3012091A4013091A501602B712BAA
:100D2000822B932B0E9473061F910F9108950F93AE
:100D30001F930091A2011091A3012091A401309171
:100D4000A50160237123822393230E9473061F91C0
:100D50000F9108950F931F930091A2011091A30189
:100D60002091A4013091A501602771278227932744
:100D70000E9473061F910F9108950E946F060895B7
:100D80000E94BD0608950E94C00660939E01709364
:100D90009F018093A0019093A1010E941D060895D8
:100DA00060E070E0CB010E94C30608950F931F938B
:100DB00041E050E060E070E08A019B0104C0000F58
:100DC000111F221F331F8A95D2F7C901B8010E9453
:100DD000C3061F910F9108950F931F9341E050E0B8
:100DE00060E070E004C0440F551F661F771F8A95AE
:100DF000D2F780919E0190919F01A091A001B091A6
:100E0000A1018A019B01082B192B2A2B3B2BC9011D
:100E1000B8010E94C3061F910F9108950F931F936D
:100E200041E050E060E070E004C0440F551F661FD1
:100E3000771F8A95D2F7CB01BA016095709580959E
:100E4000909500919E0110919F012091A0013091F9
:100E5000A10160237123822393230E94C3061F9163
:100E60000F9108950F931F9341E050E060E070E010
:100E700004C0440F551F661F771F8A95D2F78091D3
:100E80009E0190919F01A091A001B091A1018A01C2
:100E90009B01082719272A273B27C901B8010E946F
:100EA000C3061F910F9108950F931F9300919E0108
:100EB00010919F012091A0013091A101602B712B15
:100EC000822B932B0E94C3061F910F9108950F93BD
:100ED0001F9300919E0110919F012091A0013091DC
:100EE000A10160237123822393230E94C3061F91D3
:100EF0000F9108950F931F9300919E0110919F01F0
:100F00002091A0013091A1016027712782279327AA
:100F10000E94C3061F910F9108950895262F2770F0
:100F200091E001C0990F2A95EAF723E0769567953D
:100F30002A95E1F725E0269FF001279FF00D112467
:100F4000E40FF51F50E040E0682F70E08191DF0171
:100F500011979B01042E02C0369527950A94E2F75B
:100F6000217021952827292328272C934F5F5F4F35
:100F70004530510559F70895A82FA77023E096959D
:100F800087952A95E1F725E0289FF001299FF00D2C
:100F90001124E60FF71F50E040E080E0219130E09F
:100FA0000A2E02C0369527950A94E2F7217033275E
:100FB000042E01C0220F0A94EAF7822B4F5F5F4F85
:100FC0004530510559F70895262F933070F48A3033
:100FD00060F4682F70E08AE0989F600D711D112405
:100FE0004AE851E0822F0E948E070895292F9330FE
:100FF00068F48A3058F490E06AE871E03AE0239FA0
:10100000800D911D11240E94BC07089580E0089571
:10101000B0E0A0E0EEE0F8E00C94061F8C01C09078
:101020009E01D0909F01E090A001F090A1018091DD
:10103000A2019091A301A091A401B091A501C82A99
:10104000D92AEA2AFB2ACFE1D0E0BC2ED701C6017B
:101050000C2E04C0B695A795979587950A94D2F75C
:1010600080FD09C0219788F7B12C8B2DCDB7DEB755
:10107000E9E00C94221FB8018C2F0E94AA0E019760
:1010800089F3F3CFCF93DF93EC010E940808BE01F0
:101090000E94AA0EDF91CF9108951F93CF93DF9303
:1010A000EB0190918901992339F0CB010E9442080C
:1010B000DF91CF911F910895882369F0CB010E94A1
:1010C0000808182F682FCE010E94E407BE01812F67
:1010D0000E94AA0EEDCFCB010E94F607182FF6CF83
:1010E0001F93CF93DF93C091A60116E08091A701D3
:1010F0008C1304C0DF91CF911F910895D0E01C9F05
:10110000F0011D9FF00D1124E855FE4F40815181E3
:1011100062817381848195810E9465062196C770E2
:10112000E5CF4091D8015091D9016091DA017091D9
:10113000DB018091DC019091DD010E94650608953C
:101140001F93CF93DF938091DD01807F09F049C029
:101150008091DA01882309F444C08091A601C091EE
:10116000A7016091D8017091D901A091DB01B091E4
:10117000DC01D62FD72316E0C81799F190E010971D
:1011800011F0DF3F19F401968770F6CF189F900198
:10119000199F300D1124F901E855FE4F4181471385
:1011A000F2CF40814613EFCF42814111ECCF438112
:1011B00054814A1B5B0B483C510528F78091DD01A7
:1011C0008F7080618093DD01F901E355FE4F8081CE
:1011D0008F708061808388ED91E00E94F3050E940A
:1011E0007008DF91CF911F910895A1E1B0E0EBEF7E
:1011F000F8E00C94051F8C0185E0F801DE011D96D6
:1012000001900D928A95E1F7F801E28088EDC82EF1
:1012100081E0D82E6091DB017091DC0161157105D0
:1012200009F44EC19091D8012091D901892F8223D0
:101230008F3F09F445C140815181A380B480F09073
:10124000DA01F501E61BF70BFF2009F4EAC08091F3
:10125000DD01382F307FE83CF10508F0A3C03111E3
:101260006DC0FE2C251316C0941314C0E11012C0DB
:101270008F7080618093DD010E949108C6010E94F9
:10128000F3058091DD01F80185838F2D6196EAE0F9
:101290000C94211FA114B10429F0842F85238F3FC2
:1012A00009F027C180E0F82FF170DF2E80FF3CC0ED
:1012B0008091A6012091A70136E0821315C04D87C9
:1012C0005E878D859E850E944208292F22952F706A
:1012D0002230F0F0243018F59F70F1F0F80195817C
:1012E000907FD1F4D12C1EC090E0389FF001399F3F
:1012F000F00D1124E855FE4F6181651306C0608131
:10130000641303C06281E6120FC001968770D5CFC7
:101310009F7011F0882331F3805E883018F3C80184
:101320000E94F305FD2CB1CFEE2009F4AECF8091E1
:10133000DD0181608093DD01F12CA7CF251306C06C
:10134000941304C0F801EE2009F487C0C8010E947C
:101350005306882319F1EE2009F18091DD018032D6
:1013600070F02091D8013091D90138872F831986E8
:10137000BB86AA868C87CE0107960E94F30586E07D
:10138000F801A8EDB1E001900D928A95E1F70E9475
:10139000A0080E949108FF24F39477CFC8010E940F
:1013A000F305F9CF311113C07A2DB98AA88A6E2DB1
:1013B00089890E945B0688ED91E00E94F30586E032
:1013C000F60111928A95E9F70E949108B5CF25138D
:1013D0000FC094130DC0E1100BC0F8018583C80144
:1013E0000E94F30586E0F60111928A95E9F74DCF48
:1013F000C8010E945306882389F2EE2079F2809179
:10140000DD01803208F4BBCF2091D8013091D901A1
:101410003A8329831B82BD82AC828E83CE010196E2
:10142000ACCFE83CF10508F03EC0FE2CEE2009F4FC
:10143000B5CF25132AC0941328C08091DD0180FD0B
:101440001BC0982F907FC1F0F8018583903F31F049
:10145000982F907F905F8F70892B8583C8010E94A1
:10146000F30586E0F801A8EDB1E001900D928A95B0
:10147000E1F70E94910809CF86E0F801A8EDB1E0FC
:1014800001900D928A95E1F700CFC8010E945306A2
:10149000811175CF8091DD0181608093DD01C801EC
:1014A0000E94F305F2CE7A2DB98AA88A6E2D898919
:1014B0000E945B0686E0F60111928A95E9F7D9CF82
:1014C000EE2009F46BCFC8010E945306F82E882342
:1014D00009F464CF86E0F801A8EDB1E001900D9227
:1014E0008A95E1F788ED91E00E94A9020E94A00888
:1014F000C0CF81E08E25D7CEACE0B0E0E2E8FAE0E4
:101500000C940C1F4F83588769877A878B879C8739
:10151000CE0107960E94F508882369F08A859B858D
:10152000892B39F04F815885842F85238F3F09F00F
:101530006BC016E05FC086E0FE013796DE011196B3
:1015400001900D928A95E1F78A859B85892B89F315
:101550008F81988589238F3F61F32091A70130E027
:10156000C9010196877099274091A601481719066D
:1015700071F40E9433061092A7011092A60186E032
:10158000E8EDF1E0DF011D928A95E9F7D2CF96E010
:10159000929FD001939FB00D1124A855BE4FFE011C
:1015A000319601900D929A95E1F78093A7010E94E0
:1015B0007008BFCF819FC001112488559E4F0E94A3
:1015C000F5088823E9F0E091A6011E9FF00111249F
:1015D000E855FE4F408151816281738184819581FC
:1015E0000E9465068091A60190E001968770992778
:1015F0008093A6018091A6019091A7018913DACF6B
:101600002C96E3E00C94281F69857A858B859C8550
:101610000E9465068ECF682F809100019091010194
:101620000E94CE160895682F8091000190910101CB
:101630000E94DC16089580910001909101010E94A2
:10164000EA1608958091FE01859585958595089502
:101650008091FE01877008959091FE01977081E05E
:1016600009F480E00895809121020895909121026B
:10167000892B8093210208958095909121029823CF
:1016800090932102089510922102089590912002D2
:10169000892B8093200208958095909120029823B1
:1016A0009093200208951092200208958091FF01E6
:1016B000089508950E94590B08959091730292FF26
:1016C00008C09091FF01981721F08093FF010E94BC
:1016D0005A0B08958091FF01882329F01092FF0191
:1016E00080E00E945A0B0895CF93DF93E0910001B0
:1016F000F0910101809121028083E0910001F0913D
:101700000101808190912002892B80839091FF01BB
:10171000992381F0E0910001F09101018081892BF2
:10172000808380910001909101010E943A168111FD
:101730000E946A0BC0910001D091010140E250E08B
:101740006EED71E0CE010E94481F892B59F080E2B6
:10175000FE01AEEDB1E001900D928A95E1F7CE0168
:101760000E94E615DF91CF91089508950E94B50B70
:1017700008959091730292FF11C098E0899F9001A3
:101780001124622B6093FE010E94EC068091FE0101
:101790008595859585950E94B60B08950E94EC0667
:1017A00008951092FE0180E00E94B60B089590917A
:1017B000FE01809589238093FE01282F277091F4E4
:1017C000282F082E000C330B9217130659F0909116
:1017D000730292FF07C08595859585950E940E0737
:1017E0000E94D10B08959091730292FB222720F959
:1017F000281769F080FB92F990937302809172022E
:10180000909173020E94440C82E00E94D70B0895CD
:101810008091730282FB882780F991E089270E94DA
:10182000F30B089581E00E94F30B089580E00E947D
:10183000F30B08956FEF7FEF90E080E00E94811F2F
:10184000089590E080E00E945D1F21E0883E9E4F59
:1018500009F020E0822F089582E090E00E94551F59
:10186000089583E090E00E94551F0895CF9384E08F
:1018700090E00E94551FC82F82E290E00E94551F01
:10188000982F8C2FCF910895CF93C92F682F84E084
:1018900090E00E94631F6C2F82E290E00E94631F21
:1018A000CF910895AB01BC018FE090E00E94751FBD
:1018B0000895AB01BC0183E190E00E94751F08957B
:1018C00060E070E0CB010E94590C089560E070E088
:1018D000CB010E94520C0E94600C089568EE7EEFCE
:1018E00090E080E00E94811F60E082E090E00E9432
:1018F000631F60E083E090E00E94631F1092A201EA
:101900001092A3011092A4011092A50160E084E05E
:1019100090E00E94631F64E082E290E00E94631FF7
:1019200060E085E090E00E94631F60E086E090E068
:101930000E94631F6FEF87E090E00E94631F40E00A
:1019400050E0BA0188E090E00E94751F60E08DE0F1
:1019500090E00E94631F40E050E0BA0188E190E00F
:101960000E94751F60E087E190E00E94631F40E0E5
:1019700050E0BA018CE190E00E94751F70E060E0D9
:1019800080E290E00E94811F40E050E0BA0188E1CF
:1019900090E00E94751F0E94660C08950E946E0CD4
:1019A0000895682F8EE090E00E94631F08950E94C2
:1019B000B81760932C0270932D0280932E0290939F
:1019C0002F02609328027093290280932A02909339
:1019D0002B020895089508950E94EB0C0895089530
:1019E0000E94EF0C089589E89FE00E94CF150E94A5
:1019F000EA0C0E94EC0C089581E008950E94FC0C12
:101A00000895089508950E94010D0E94020D089501
:101A10000E94A50F0E94560208950E94A3170E94DB
:101A200085100E94080D0E94F00C0895AAE0B0E015
:101A3000ECE1FDE00C94021F0E949B10A82E811186
:101A40000E94D70C52E2852E52E0952E10E000E065
:101A5000702E802F0E94D20F6C01F401E190F19062
:101A60004F01E816F90609F444C08091300281FD67
:101A70000E94DB0FC7018C259D25B12CEE24E39439
:101A8000F12C9C012E213F21232B69F10E94FE0C99
:101A90008823B1F0BE827F82CE20DF2081E0C11496
:101AA000D10409F480E088870E94AC178160782F08
:101AB0009A8789874E815F8168858A850E94740232
:101AC000000F111FF801EE5DFD4F80819181E82626
:101AD000F926F182E08281E0A11001C080E02A961F
:101AE000EDE00C941E1FB394EE0CFF1CFAE0BF1245
:101AF000C8CF0F5F1F4F0330110509F0A9CF8FEF3B
:101B000089838A831B820E94AC178160782F9D8312
:101B10008C8349815A816B818D810E947402DBCF55
:101B20000E94160D0E94B6120E9469020895CF937A
:101B3000DF930E94AF0EEC01811521E5920708F0BA
:101B400042C0811530E5930708F09DC0883E91059D
:101B500030F5803E910508F092C0883A910588F4EE
:101B6000853A910508F084C08130910509F487C059
:101B7000009709F484C0049708F081C0D0E0C0E069
:101B80007EC08F3B9105D0F7C85AD0E0CC0FDD1F47
:101B9000C85BDE4F0990D881C02DD46470C0811518
:101BA000904250F4C11581E0D80708F068C0CD3EDE
:101BB000D10520F3D06563C0C11590E4D907F0F2D8
:101BC000DF70D06A5CC0811525E5920700F58115AC
:101BD00034E5930708F08BC0811543E5940708F0BE
:101BE00073C0C11582E5D80708F469C0CE018370BF
:101BF000992721E030E002C0220F331F8A95E2F7D7
:101C0000C695C69580E2C89FE001112454C0C11555
:101C100099E5D907A8F4C11528E5D20708F06CC0EA
:101C2000C11536E5D30708F0A9CF8C2F0E94460FC7
:101C3000C82FD0E0DC2FCC27CC27DF71D0621FC0AB
:101C4000C1154AE5D40708F45CC0CE019056811551
:101C5000904208F093CF8D2F8F710E94460F90E035
:101C6000982F882788279F719C012C2BE901E6CFAC
:101C7000C55AD0E0CA58DE4FC881D0E0D064CE014A
:101C8000DF91CF910895E4E096958795EA95E1F785
:101C900083702C2F26952695237040E2249F900177
:101CA0001124382B8C2F8370C1E0D0E002C0CC0F00
:101CB000DD1F8A95E2F7C22BD32BDC68E0CFDC2F47
:101CC000CC27C16FD06ADBCF8370992721E030E049
:101CD00002C0220F331F8A95E2F7C695C69590E29F
:101CE000C99FE0011124C22BD32BDA68C8CFD82FAB
:101CF000CC27C46FD06AC3CFDC2FCC27C06FD06A8B
:101D0000BECF8C2F8F700E94460F34E0D695C795BA
:101D10003A95E1F7CF709C2FEC01D069B0CF972FA7
:101D20007330A8F46A3098F470E02AE0929F600D56
:101D3000711D1124FB019EE1899FE00DF11D11240D
:101D4000EE0FFF1FE455FF4F85919491089580E0B9
:101D500090E008950E948F0E0E94970D089582389A
:101D60009105B1F1B0F48133910509F475C048F4DF
:101D70008932910509F469C08A32910509F473C06A
:101D800008958533910509F459C08933910501F10E
:101D90000895833E9105A9F138F4803E9105F9F04C
:101DA000823E910549F10895863E9105A9F1873E4D
:101DB0009105C9F1843E910519F52091730221FF27
:101DC0001FC08091720284FD14C087EE90E00895D8
:101DD000209172022370A1F080EE90E0089520918E
:101DE000720220FD47C03091730230FF09C024FF0A
:101DF00044C090E080E004C02091720222FDF7CF41
:101E000008952091720222FD3BC03091730230FD93
:101E1000E3CF24FFF5CFEDCF2091720223FFF0CF67
:101E200024FDE7CFD2CF2091720223FD2CC0309148
:101E3000730231FFEECF84EE90E00895209172029C
:101E400025FFDECF89E290E008952091720225FF00
:101E5000D7CF85E390E008952091720226FFD0CF7E
:101E60008AE290E008952091720226FFC9CF81E3B3
:101E700090E0089589E390E0089583EE90E008955E
:101E800082EE90E0089586EE90E0089590917202BF
:101E900092FF06C0282F28712830F9F4877F8460CC
:101EA00093FF06C0282F28712831F1F4877E8461C2
:101EB0002091730220FF06C0382F38713830D9F4D2
:101EC000877F816021FF06C0282F28712831D1F437
:101ED000877E816194FD877E0895282F24712430A8
:101EE000F9F68B7F8860DCCF282F2471243101F72D
:101EF0008B7E8861DDCF382F3171313019F78E7FBD
:101F00008860E0CF282F2171213121F78E7E8861F2
:101F1000E1CF80E008950E941A0C08950E949B1062
:101F20008FE39CE90197F1F700C000000E949B102D
:101F300080E00E94D20F80FF04C00E948B0F0E949D
:101F4000F71708950E948E0F08950E94210C8111A9
:101F500002C00E94CE0C0E942C0C809330020E9482
:101F6000360C90937302809372020E94A20F0E941B
:101F7000310C682F70E090E080E00E948106609153
:101F80009E0170919F018091A0019091A1010E94FA
:101F9000C006089508950E94CA0F089508950E94EA
:101FA000CE0F0895E82FF0E0EE0FFF1FE658FD4F2B
:101FB000808191810895089580EA8A95F1F70895C6
:101FC00000C008950E94DC0F0895F894E82FE29570
:101FD000EF70F0E031A1282F2F7081E090E001C078
:101FE000880F2A95EAF7982F9095932391A392A1B1
:101FF000892B82A378940895CF93DF9387EF0E9473
:10200000E50F81E30E94E50F84E90E94E50FC9E72F
:10201000D1E089918F3F11F00E94E50F81E0C33834
:10202000D807B9F7DF91CF910895AF92BF92DF92B1
:10203000EF92FF920F931F93CF93DF938C01D62ED5
:10204000C62FD0E0CE018D579E4F7C01FC01208130
:102050002F3F09F44DC0F894E22FE295EF70F0E0C5
:1020600031A12F7081E090E001C0880F2A95EAF736
:10207000932F982B91A392A18095892382A3789482
:102080000E94E00FE9E7F1E043E851E021E030E0B1
:10209000B12CA12C61916F3FA9F1A62FA295AF7031
:1020A000B0E090968C9190E06F7002C09595879506
:1020B0006A95E2F780FD26C0C901A82AB92A220F35
:1020C000331F4E175F0731F7F70180818F3F11F003
:1020D0000E94E50F61E0A114B10409F460E08D2DC8
:1020E0000E94E20FCC0FDD1FC00FD11FB982A88262
:1020F000DF91CF911F910F91FF90EF90DF90BF90F4
:10210000AF90089590E080E0D8CF0E94FC0F86E069
:10211000EAE7F2E0DF01982F1D929A95E9F7E4E7EC
:10212000F2E0DF011D928A95E9F783E00E94DA1060
:102130000E94D0010895A6E0B0E0E1EAF0E10C943D
:102140000A1F8E010F5F1F4F86E0F80111928A95DA
:10215000E9F760E0C8010E94151061E0C8010E9423
:10216000151062E0C8010E94151046E050E0B80169
:1021700084E792E00E94481FFF24F394009709F43B
:10218000F12C892B41F086E0F801A4E7B2E0019040
:102190000D928A95E1F72F2D43E06AE772E084E71C
:1021A00092E00E94DB100E94D3018F2D2696E5E07D
:1021B0000C94261F0895FF920F931F93CF93DF93E4
:1021C000F82E092F162FD72FC42F222349F081E094
:1021D000809333020E94AC179093320280933102B5
:1021E000809133028823A1F08091310290913202D4
:1021F0000E94C417059760F0EF2DF02FA12FBD2F7F
:1022000090E080E0D0E08C179D073CF01092330204
:10221000CDB7DEB7E5E00C94261F219131912D93C7
:102220003D930196F0CF0E94BE190E940D0D0E94B1
:10223000CB1908950E94D0190E94900D0E94EA19AE
:1022400008950E9445170E94A4190E94F30C0E9451
:1022500013110E941A110E94030DFBCF80913A02C4
:1022600080FF0DC06091070170E0660F771F603836
:10227000710570F56115710569F1862F089581FF6B
:1022800007C06091070184E0689FB0011124EFCF7F
:102290006091070182FD0AC0809139028823A9F06C
:1022A0002091060160910701821710F088E0ECCFC1
:1022B000869FC001112433E0880F991F3A95E1F7FA
:1022C000622F70E00E94E31ED2CF68E070E0D5CFAD
:1022D0008FE7089581E0089580913A0280FF0CC055
:1022E0006091030170E07595679575956795611527
:1022F000710549F1862F089581FF06C060910301A1
:1023000070E075956795F3CF6091030182FD0BC076
:10231000909138029923A1F060910201809103010C
:10232000961738F0682F70E06038710500F38FE77A
:102330000895899FC001112470E00E94E31EF4CF2C
:1023400061E070E0D7CF81E008958D3E31F40E94C6
:102350002E11819580933E0208958E3E19F40E94BD
:102360002E11F8CF8F3E31F40E942E11819580936B
:102370003D020895803F19F40E942E11F8CF893F45
:1023800029F40E946C1180933F0208958A3F21F442
:102390000E946C118195F7CF8B3F31F40E946C1134
:1023A00081958093400208958C3F19F40E946C112E
:1023B000F8CF9FE0980F983070F4815F990B21E07F
:1023C00030E001C0220F8A95EAF780913C02822B0F
:1023D00080933C0208958D3F31F480913A028160F0
:1023E00080933A0208958E3F21F480913A028260F0
:1023F000F7CF8F3FB9F780913A028460F1CF4091D7
:102400003D028D3E59F480913E0287FF0DC010922F
:102410003E0241110BC01092390208C08E3E81F479
:1024200080913E0218169CF3442381F080913F0274
:1024300090914002892B09F05AC0109238020895F9
:102440008F3E49F447FFF0CF10923D0280913E024B
:102450008111ECCFE0CF803F19F41416ACF3E4CF38
:1024600090913F02893F29F41916F4F610923F0229
:10247000DBCF8A3F19F497FFD7CFF8CF9091400276
:102480008B3F29F497FFD0CF10924002CDCF8C3FE5
:1024900019F41916CCF3C8CF9FE0980F983090F438
:1024A000815F990B21E030E0B90102C0660F771F10
:1024B0008A95E2F7CB01809590913C028923809325
:1024C0003C02B2CF8D3F31F480913A028E7F8093EF
:1024D0003A02AACF8E3F21F480913A028D7FF7CF46
:1024E0008F3F09F0A1CF80913A028B7FF0CF089502
:1024F0000E94AC179C0190913D0280913E02982B66
:1025000021F0309337022093360290913F02809160
:102510004002982B21F030933502209334028BE354
:1025200092E00E940016089586E0EBE3F2E0DF01FE
:102530001D928A95E9F71092390210923802109292
:102540003A020895FC01828181110EC083818111BC
:102550000BC08481811108C091E08581811101C087
:1025600090E0892F8170089581E0FCCFA6E0B0E073
:10257000ECEBF2E10C940C1F86E0EBE3F2E0DE0101
:10258000119601900D928A95E1F710923D021092FA
:102590003E0210923F02109240028B819C81892B57
:1025A00089F080913602909137020E94C417AC01E5
:1025B000909139029923C9F1809108018417150679
:1025C00008F440C08D819E81892B91F08091340266
:1025D000909135020E94C417AC0190913802992362
:1025E00009F471C0809104018417150608F479C0BC
:1025F000BE016F5F7F4F8BE392E00E94FC1681115A
:1026000005C08BE392E00E94A21281110E94781211
:1026100086E0FE013196ABE3B2E001900D928A951F
:10262000E1F72696E3E00C94281F209109018AE047
:10263000289F900111242417350720F69F5F90935F
:10264000390202C09F3FD1F71B81112359F00E942C
:102650002E119FEF11160CF491E0899F802D11240B
:1026600080933D021C81112359F00E942E119FEF8F
:1026700011160CF491E0899F802D112480933E0265
:1026800030913D02332309F49DCF20913E02222355
:1026900009F498CF45EB3403C0011124992359F074
:1026A00090933D0245EB240390011124332339F02C
:1026B00030933E0287CF81E080933D02F3CF81E0EB
:1026C00080933E027FCF209105018AE0289F9001F0
:1026D00011242417350708F08BCF9F5F90933802A1
:1026E00002C09F3FD1F71D81112359F00E946C1148
:1026F0009FEF11160CF491E0899F802D1124809397
:102700003F021E81112359F00E946C119FEF111698
:102710000CF491E0899F802D112480934002309128
:102720003F02332309F464CF20914002222309F4AD
:102730005FCF45EB3403C0011124992359F09093E6
:102740003F0245EB240390011124332339F03093E9
:1027500040024ECF81E080933F02F3CF81E080932F
:10276000400246CFCF93DF93EC01FB0182818823A7
:1027700009F433C1C430FDE5DF07C0F5CB3F9CE56C
:10278000D90730F49E0122503C4524313105B0F583
:102790000E94360C9093730280937202C1318CE5D3
:1027A000D80709F4EEC008F069C0C930ECE5DE07CF
:1027B00009F4D5C0C8F5C5308CE5D80709F4C7C001
:1027C00000F5C330ECE5DE0709F4B9C008F0BBC082
:1027D000C230DC4509F4ADC0809172029091730261
:1027E0000E94440C0E94330680E008C0C236EDE52A
:1027F000DE0771F2C63AFDE5DF0751F2DF91CF91B6
:102800000895809172028062C7309CE5D90709F46F
:1028100093C0809172028061C830DC4508F48CC09E
:1028200080917202806488C0809172028B7FCD306B
:10283000FCE5DF0709F480C098F4809172028E7F76
:10284000CB309CE5D90709F477C0809172028C6087
:10285000CC30DC4508F470C0809172028D7F6CC072
:10286000809172028F7ECF30FCE5DF0709F464C0EF
:1028700008F47BC0809172028F7D5EC0CE3F9CE5E4
:10288000D90709F47AC050F5C531FCE5DF0709F432
:1028900086C098F480917202837FC3319CE5D9078A
:1028A00009F44AC008F471C00E9433069091720284
:1028B000892F97FB87F980583FC0CC3FFCE5DF07A5
:1028C00009F449C008F055C0809173028160CB3F84
:1028D000DC4509F081CF809373027ECFC230EDE5F5
:1028E000DE0709F468C0A8F4C1158DE5D80709F41E
:1028F00052C0809173028360C130DD4560F38091E6
:102900007302982F909591708E7F892B90FB81F99F
:10291000E2CFC236EDE5DE0709F451C0C63AFDE567
:10292000DF0709F453C0C330DD4509F055CF80E01F
:1029300043C0809172028160809372024DCF80917A
:1029400072028260F9CF809172028460F5CF80912B
:1029500072028860F1CF809173028260BCCF0E94C6
:102960003306809172028068E7CF80917202877F80
:10297000E3CF809173028E7FAECF809173028D7F03
:10298000AACF809172028F7BD7CF0E9433068091AD
:1029900072028F77D1CF809173028C7F9CCF809110
:1029A000720282FB992790F921E0922790FB82F92D
:1029B00090FB83F9C1CF81E00E94D10C0DCF9091A3
:1029C0007202892F8F7E94FF8061B6CF9091720240
:1029D000892F8E7F90FF8160AFCF81E00FCFCF93A3
:1029E000DF93EB0186319C4511F50E94330B9A81F0
:1029F000992399F08A7A91E009F490E0909341024A
:102A0000811109C089E20E940B0B0E94740B80E0C7
:102A1000DF91CF91089585E3F6CF80914102811136
:102A200004C089E20E94130BF0CF85E3FBCF81E065
:102A3000EFCF0F931F93CF93DF93C42FD22FFC01BF
:102A400082818823C9F0409344020E94AC1790937E
:102A500043028093420280E28C0F883040F4C770BA
:102A600081E001C0880FCA95EAF70E94BA03DF919E
:102A7000CF911F910F91089510914402141332C009
:102A800080914202909143020E94C417883C9105B4
:102A900048F5C0E2CD0F1D17B9F080E2810F8830F4
:102AA00040F4177081E001C0880F1A95EAF70E9480
:102AB000C103C83048F481E09D2F977001C0880F92
:102AC0009A95EAF70E94BA03802F0E94B103C8309A
:102AD00070F6D77081E001C0880FDA95EAF70E949E
:102AE000C103C5CF80E28C0F883008F6C77081E043
:102AF00001C0880FCA95EAF7F2CF0F939C01CB0172
:102B0000243F4CE5340759F1A8F4293DFCE53F0783
:102B100001F12A3D4CE53407D1F1283D3C4591F4C3
:102B200006E221EE41EE68ED7CE50E94191580E099
:102B30000F910895263FFCE53F07E9F0B0F0273FED
:102B40003C45F9F0FC018281882339F1109244025E
:102B5000EFCF07E225EE45EE69ED7CE5E6CF06E234
:102B600021EE40EE64EF7CE5E0CF07E225EE44EE97
:102B700065EF7CE5DACF06E221EE42EE66EF7CE51A
:102B8000D4CF07E225EE46EE67EF7CE5CECF08E234
:102B900021E045EE6AED7CE5C8CF81E0C9CF909396
:102BA000870180938601089590934A028093490299
:102BB0000895E0914902F0914A02309729F001907E
:102BC000F081E02D0995089580E00895E091490293
:102BD000F0914A02309799F020911601222359F082
:102BE0002091720227FF07C0DC012C9111962C93D3
:102BF000119726E02C930280F381E02D099508952A
:102C0000E0914902F0914A02309739F022E0DC016C
:102C10002C930480F581E02D0995089520914702B9
:102C2000309148022817390771F090934802809339
:102C30004702E0914902F0914A02309721F0068064
:102C4000F781E02D099508952091450230914602C3
:102C50002817390771F09093460280934502E0915E
:102C60004902F0914A02309721F00084F185E02D6D
:102C700009950895FC01329680911601882321F070
:102C8000809172029EE187FF96E080E0915008F407
:102C9000089521912223D1F38F5FF8CF662301F1AC
:102CA000209116012223F1F02091720227FF1AC011
:102CB000462F4695469546954E3190F4677021E033
:102CC00030E002C0220F331F6A95E2F7840F911D96
:102CD000FC01828190E02823392381E0232B69F4D1
:102CE00080E00895FC01329608962191261721F084
:102CF000E817F907D1F7F4CF81E008959C01FC01B2
:102D000032969FEF80E04191461751F09F3F19F4B2
:102D1000411101C0982F8F5F8630A9F79F3F09F4BA
:102D20000895290F311D97FD3A95F90162830895A1
:102D3000FC01329608962191261303C0DF011197FA
:102D40001C92E817F907B9F70895E62FE695E6957E
:102D5000E695EE3168F4E80FF92FF11D677021E078
:102D600030E001C0220F6A95EAF78281822B8283CC
:102D70000895E62FE695E695E695EE3170F4E80FB6
:102D8000F92FF11D677021E030E001C0220F6A9534
:102D9000EAF7209582812823228308952091160145
:102DA000222339F02091720227FF03C00E94A5164A
:102DB00008950E947E16089520911601222339F06D
:102DC0002091720227FF03C00E94B91608950E9445
:102DD00098160895FC01329680911601882351F0CF
:102DE0008091720287FF06C08EE1DF011D928A95F5
:102DF000E9F7089586E0F9CF46E050E00E94481FC9
:102E000021E0892B09F420E0822F089508950E9483
:102E100006170895811106C081E080934B020E943D
:102E20000717089582E0F9CF83E080934B020E9458
:102E3000071708950E940A17089581E080934B02B6
:102E40000E94071708950E941D1708950895089578
:102E50000E9427170895089508950E94261708953F
:102E6000CF930E942B170E949B100E942C17C0E04A
:102E70008C2F0E94D20F892B31F4CF5FC330C1F762
:102E800080E0CF91089581E0FCCF85B7806885BF51
:102E900085B7806885BF08951F921FB61F921124C1
:102EA0008F939F93AF93BF9380914C02811113C076
:102EB0008091800290918102A0918202B091830260
:102EC0004196A11DB11D8093800290938102A09331
:102ED0008202B0938302BF91AF919F918F911F9017
:102EE0001FBE1F90189580918802843031F10E9496
:102EF000430210924C0288E190E020E40FB6F8946F
:102F0000A895809360000FBE2093600083B7817FF7
:102F1000846083BF83B7816083BF7894889583B7CB
:102F20008E7F83BF0FB6F894A8958091600088616A
:102F300080936000109260000FBE08950E943306D7
:102F40000E944802089582E084BD93E095BD9AEF07
:102F500097BD80936E0008952FB7F89480918002FA
:102F600090918102A0918202B09183022FBF0895B7
:102F70002FB7F89460918002709181028091820253
:102F8000909183022FBF08959C014FB7F8948091D0
:102F9000800290918102A0918202B09183024FBF82
:102FA000821B930B089578941F921FB61F921124D1
:102FB0008F939F93AF93BF938091800290918102F2
:102FC000A0918202B09183020196A11DB11D809350
:102FD000800290938102A0938202B0938302BF91FA
:102FE000AF919F918F911F901FBE1F90189587E7FB
:102FF00097E7909301088093000888E19AE00FB664
:10300000F894A895809360000FBE90936000FFCF66
:1030100088E19AE00FB6F894A895809360000FBEFF
:1030200090936000FFCF80917002089508959C01F5
:1030300082E08093E9009FEF8091E800915085FD48
:1030400006C085ED8A95F1F700009111F5CF8091CA
:10305000E80085FF0CC050E040E066E070E0C90188
:103060000E945C1A8091E8008E778093E8000895B2
:10307000CF93DF93EC01809116018823B1F1809109
:10308000720287FF32C060E282E08093E9008FEF36
:103090009091E800815095FD06C095ED9A95F1F765
:1030A00000008111F5CF8091E80085FF1BC0809161
:1030B000160170E050E040E0811104C050E040E0B3
:1030C00068E070E0CE010E945C1A8091E8008E7783
:1030D0008093E80080E2FE01A0E5B2E001900D924D
:1030E0008A95E1F7DF91CF91089568E081E0CDCF37
:1030F00080934D0270934F0260934E02809188023C
:10310000843001F582E08093E9008FEF9091E80030
:10311000815095FD06C095ED9A95F1F7000081115B
:10312000F5CF8091E80085FF0DC050E040E063E0FE
:1031300070E08DE492E00E945C1A8091E8008E7746
:103140008093E8000895BC0184E00E9478180895F7
:10315000BC0183E00E947818089580918702811154
:1031600009C00E94EC1B0E94491C8091E20084600F
:103170008093E20008951092870208950E941D171F
:1031800008956091840281E0611101C080E00E9495
:10319000141708959091880281E0943009F080E03E
:1031A000609184020E941A17089542E061EC81E068
:1031B0000E94681B42E261EC82E00E94681B9091D1
:1031C000880281E0943009F080E0609184020E94DE
:1031D0000A17089580918A02833009F461C030F49F
:1031E0008130D1F1823009F49EC008958A3009F40B
:1031F0008AC08B3009F46FC0893009F050C08091CB
:103200008902813209F04BC080918D0290918E022B
:10321000029708F044C08091E800877F8093E8001F
:103220008091E80082FF37C09091F3008091F20016
:10323000029731F48091F100813011F0863021F451
:103240008091F100809370028091E8008B778093E9
:10325000E8000E949C1B23C080918902813AF9F406
:103260008091E800877F8093E80080918D029091A3
:103270008E02892B61F460E280E592E070E00E94AA
:10328000AB1A8091E8008B778093E800089560E0A6
:1032900090E080E0F3CF809188028111C1CF089542
:1032A00080918902813AD9F780918D0290918E02A6
:1032B000892BA9F78091E800877F8093E8008091AF
:1032C000E80080FFFCCF809116018093F10080918F
:1032D000E8008E77BCCF80918902813201F780911E
:1032E0008D0290918E02892BD1F68091E800877F24
:1032F0008093E8000E949C1B80918B0280931601B2
:103300000E943306089580918902813241F68091AE
:10331000E800877F8093E8000E949C1B80918C02CC
:1033200080937102089580918902813A09F0B7CFA4
:103330008091E800877F8093E8008091E80080FF1B
:10334000FCCF80917102C1CF84B7877F84BF0FB655
:10335000F894A89580916000886180936000109235
:1033600060000FBE80E890E00FB6F8948093610093
:10337000909361000FBE0E94231708950E94EC1BDA
:103380000E94491CE2EEF0E08081846080837894A2
:103390000E94C81E08958AE091E00E94D415089505
:1033A00080918802853031F480918802853019F04F
:1033B0000E949E1708950E947317809186028823A9
:1033C00099F30E943017882379F30E94461A0E94CD
:1033D0003306EACF08950E94EE190895292F332766
:1033E0002330310519F168F42130310509F444C066
:1033F0002230310509F445C090E080E030E020E063
:1034000025C02132310549F122323105A9F780E486
:1034100090E023E832E061157105C1F086EB90E0A1
:103420002DEC31E06130710589F0E6CF99278130CC
:10343000910581F0009729F00297F1F6E0E6F1E0BE
:1034400002C0ECE7F1E0849190E09F01FA01318342
:1034500020830895E0E7F1E0F6CF89E090E022E9EB
:1034600031E06115710591F389E090E02BEA31E0DC
:103470006130710559F3C0CF82E190E02BEB31E070
:10348000E5CF8BE390E020E831E0E0CF80E189BD3B
:1034900082E189BD09B400FEFDCF8091D8008F7D07
:1034A0008093D8008091E00082608093E00080915A
:1034B000E00081FDFCCF0895AF92BF92CF92DF92E2
:1034C000FF920F931F93CF93DF936C01EB018A015F
:1034D0000E94BB1BF82E811123C00115110539F084
:1034E000F80180819181C81BD90BC80ED91EB12C5F
:1034F000A12C2097A9F08091E80085FD22C0809141
:10350000E8008E778093E80001151105A1F0F8011D
:1035100080819181A80EB91EB182A08285E0F82E2B
:103520008F2DDF91CF911F910F91FF90DF90CF9062
:10353000BF90AF9008950E94BB1B8823D1F2F82E54
:10354000EFCFF60181916F018093F1002197FFEF9A
:10355000AF1ABF0ACECFFC0180918F0290919002EA
:1035600086179707A0F06115710529F49091E8007E
:103570009E779093E80090E06115710551F49111E8
:1035800008C08091E80082FF34C080E00895BC014B
:10359000F2CF809188028823C1F18530C1F18091FA
:1035A000E80083FD30C08091E80082FDEACF809181
:1035B000E80080FFE1CF8091F3002091F200382FE6
:1035C0006115710519F02830310558F091E0283067
:1035D000310509F090E02091E8002E772093E80073
:1035E000CBCF81918093F100615071092F5F3F4FE4
:1035F000E7CF80918802882341F0853041F08091A7
:10360000E80083FFBECF81E0089582E0089583E063
:103610000895FC0180918F02909190028617970780
:10362000A0F06115710529F48091E8008E778093F0
:10363000E80090E06115710551F4911108C0809186
:10364000E80082FF35C080E00895BC01F2CF809190
:1036500088028823C9F18530C9F18091E80083FD93
:1036600031C08091E80082FDEACF8091E80080FFC0
:10367000E1CF8091F3002091F200382F61157105A0
:1036800019F02830310558F091E02830310509F063
:1036900090E08091E8008E778093E800CBCF849112
:1036A0008093F1003196615071092F5F3F4FE6CF53
:1036B00080918802882341F0853041F08091E800B4
:1036C00083FFBDCF81E0089582E0089583E00895EF
:1036D000982F973028F08F708093E90081E008954B
:1036E0009093E900242F762F50E0981731F07091D5
:1036F000EC002091ED005091F00021FD02C09F5F91
:10370000E8CF3091EB003E7F3093EB003091ED003D
:103710003D7F3093ED003091EB0031603093EB0052
:103720007093EC002093ED005093F0002091EE0098
:1037300027FDE5CF80E008958091890287FF13C0BF
:103740008091E80082FF06C08091E8008B7780932B
:10375000E80004C0809188028111F2CF0895809121
:1037600088028823D9F38091E80080FFF8CF809108
:10377000E8008E77ECCF2091E4003091E50095E6EB
:10378000A9012091EC00822F817020FF06C080915A
:10379000E80080FF06C080E008952091E80022FD47
:1037A0001AC080918802882389F0853089F0809141
:1037B000EB0085FD0FC02091E4003091E500421739
:1037C0005307F9F29150E1F684E0089582E00895FC
:1037D00083E0089581E008950E945B1C0E94631CB1
:1037E000E0EEF0E0808181608083E8EDF0E08081B0
:1037F0008F77808319BCA7EDB0E08C918E7F8C937E
:1038000080818F7E80831092870208950F931F938B
:10381000CF93DF930E945B1C0E94631CC8EDD0E035
:1038200088818F77888388818068888388818F7D6D
:10383000888319BC1092880210928402109286022A
:103840001092850200EE10E0F80180818B7F80836A
:1038500088818160888342E060E080E00E94681B8C
:10386000E1EEF0E080818E7F8083E2EEF0E0808107
:1038700081608083808188608083F80180818E7F71
:103880008083888180618883DF91CF911F910F9120
:103890000895E8EDF0E080818F7E8083E7EDF0E031
:1038A00080818160808384E082BF81E08093870291
:1038B0000E94061C0895E8EDF0E080818E7F8083F1
:1038C0001092E20008951092DA001092E10008953B
:1038D0001F920F920FB60F9211242F933F934F9385
:1038E0005F936F937F938F939F93AF93BF93EF9368
:1038F000FF938091E10082FF0BC08091E20082FF84
:1039000007C08091E1008B7F8093E1000E94C71E79
:103910008091DA0080FF19C08091D80080FF15C027
:103920008091DA008E7F8093DA008091D90080FF49
:1039300096C080E189BD82E189BD09B400FEFDCF5A
:1039400081E0809388020E94AD188091E10080FFA1
:1039500019C08091E20080FF15C08091E2008E7F47
:103960008093E2008091E20080618093E200809188
:10397000D80080628093D80019BC85E080938802CB
:103980000E94C1188091E10084FF2BC08091E20069
:1039900084FF27C080E189BD82E189BD89B5982F68
:1039A000917080FFFBCF8091D8008F7D8093D800ED
:1039B0008091E1008F7E8093E1008091E2008F7E14
:1039C0008093E2008091E20081608093E200809128
:1039D0008402882309F449C084E0809388020E940D
:1039E000CA188091E10083FF29C08091E20083FF23
:1039F00025C08091E100877F8093E10082E0809381
:103A00008802109284028091E1008E7F8093E10011
:103A10008091E2008E7F8093E2008091E2008061DD
:103A20008093E20042E060E080E00E94681B8091A9
:103A3000F00088608093F0000E94BE18FF91EF9123
:103A4000BF91AF919F918F917F916F915F914F91B6
:103A50003F912F910F900FBE0F901F90189519BC9A
:103A6000109288020E94BB1870CF8091E30087FDFE
:103A700093E090938802B3CF1F920F920FB60F92EC
:103A800011242F933F934F935F936F937F938F9363
:103A90009F93AF93BF93CF93DF93EF93FF93D09117
:103AA000E900DF708091EC00C82FC17080FDC0E894
:103AB0001092E9008091F000877F8093F000789465
:103AC0000E94801D1092E9008091F0008860809330
:103AD000F000CD2BCF70C093E900FF91EF91DF9103
:103AE000CF91BF91AF919F918F917F916F915F9196
:103AF0004F913F912F910F900FBE0F901F901895EF
:103B0000AAE2B0E0E6E8FDE10C940C1F89E892E03F
:103B10002091F100FC012193CF01F2E081399F0750
:103B2000B9F70E94EA188091E80083FF1EC18091D6
:103B3000890290918A029A3008F017C1E92FF0E0CB
:103B4000EB55F04E0C94F71E803899F0823809F04E
:103B50000CC180918D028F70873008F006C1809370
:103B6000E9008091EB0085FB882780F91092E9003D
:103B700006C0809185029091860291118260909199
:103B8000E800977F9093E8008093F1001092F10095
:103B90008091E8008E77E5C0882309F4D3C0823095
:103BA00009F0E3C080918B028111D6C080918D0213
:103BB0008F702FEF280F263008F0D7C08093E900D0
:103BC0002091EB0020FFC8C0933031F48091EB00CE
:103BD00080628093EB00C0C09091EB009061909365
:103BE000EB0021E030E001C0220F8A95EAF7209334
:103BF000EA001092EA008091EB008860EACF811120
:103C0000B4C010918B021F778091E3008078812BE4
:103C10008093E3008091E800877F8093E8000E9412
:103C20009C1B8091E80080FFFCCF8091E3008068BE
:103C30008093E30082E0111183E08093880295C0B5
:103C40008058823008F091C080918B0290918C0254
:103C50008C3D23E09207A1F583E08A838AE2898381
:103C60004FB7F894DE01139620E03EE051E2E32FD7
:103C7000F0E050935700E49120FF03C0E295EF700D
:103C80003F5FEF708E2F90E0EA30C0F0C7968D93C3
:103C90009D932F5F243159F74FBF8091E800877FB4
:103CA0008093E8006AE270E0CE0101960E94AB1AB0
:103CB0008091E8008B778093E80057C0C096E7CFEB
:103CC00060918D0270918E02AE014F5F5F4F0E9436
:103CD000EB19BC01892B09F448C09091E800977F4B
:103CE0009093E80089819A810E94091BE1CF803876
:103CF000E1F58091E800877F8093E800809184025D
:103D00008093F10045CF811130C090918B029230A9
:103D100060F58091E800877F8093E80090938402AB
:103D20000E949C1B80918402882311F084E005C0CE
:103D30008091E30087FDFACF81E0809388020E94A2
:103D4000D51813C080918B02813079F481E09330D3
:103D500009F080E0809386021092E9008091E800EB
:103D6000877F8093E8000E949C1B8091E80083FF7E
:103D70000AC08091E800877F8093E8008091EB0083
:103D800080628093EB00AA96E3E00C94281F0895CC
:103D9000CF93809188028823A1F0C091E900CF7071
:103DA0009091EC00892F817090FD80E8C82B1092D3
:103DB000E9008091E80083FD0E94801DCF70C093D0
:103DC000E900CF91089597FB072E16F4009407D0D1
:103DD00077FD09D00E94341F07FC05D03EF4909572
:103DE00081959F4F0895709561957F4F0895EE0FCF
:103DF000FF1F0590F491E02D09942F923F924F926E
:103E00005F926F927F928F929F92AF92BF92CF926A
:103E1000DF92EF92FF920F931F93CF93DF93CDB773
:103E2000DEB7CA1BDB0B0FB6F894DEBF0FBECDBFEB
:103E300009942A88398848885F846E847D848C84BC
:103E40009B84AA84B984C884DF80EE80FD800C81C5
:103E50001B81AA81B981CE0FD11D0FB6F894DEBFA8
:103E60000FBECDBFED010895AA1BBB1B51E107C0DA
:103E7000AA1FBB1FA617B70710F0A61BB70B881FFA
:103E8000991F5A95A9F780959095BC01CD01089589
:103E9000FB01DC0104C08D910190801921F4415097
:103EA0005040C8F7881B990B0895F999FECF92BD31
:103EB00081BDF89A992780B50895A8E1B0E042E065
:103EC00050E00C94891F262FF999FECF92BD81BD39
:103ED000F89A019700B4021639F01FBA20BD0FB648
:103EE000F894FA9AF99A0FBE08950396272F0E9424
:103EF000641F0E94631F252F0E94641F242F0C94AF
:103F0000641F0196272F0E94641F0C94631FDC011D
:103F1000CB01FC01F999FECF06C0F2BDE1BDF89AD4
:103F2000319600B40D9241505040B8F70895F8947E
:103F3000FFCF0304030434043404C104DD04630428
:103F40006304E804740583058305A41DCC1DB51E18
:0E3F5000CC1DB51EFF1D201EB51E771E831E44
:103F5E000002280850011E0A1401131838181718E9
:103F6E00A818A318161801E200E900EA00B500B679
:103F7E0000B700CD008301CC008A0192019401218B
:103F8E0002230224022502260227022A02B300B4CB
:103F9E00006F007000818283E200E900EA00B50044
:103FAE00B600B700CD008301CC008A0192019401C6
:103FBE002102230224022502260227022A02B3002E
:103FCE00B4006F007000818283919066F4F5F63331
:063FDE00323697F7319422
:00000001FF
