:100000000C94DB010C94F8010C94F8010C94F801A9
:100010000C94F8010C94F8010C94F8010C94F8017C
:100020000C94F8010C94F8010C945C200C94302191
:100030000C948F1A0C94F8010C94F8010C94F801AC
:100040000C94F8010C94F8010C94F8010C94F8014C
:100050000C94F8010C94161B0C94F8010C94F80104
:100060000C94F8010C94F8010C94F8010C94F8012C
:100070000C94F8010C94F8010C94F8010C94F8011C
:100080000C94F8010C94F8010C94F8010C94F8010C
:100090000C94F8010C94F8010C94F8010C94F801FC
:1000A0000C94F8010C94F8010C94F80114001A0057
:1000B0000800150017001C0018000C0012001300A7
:1000C00004001600070009000A000B000D000E00D6
:1000D0000F0001511D001B00060019002C002C0010
:1000E0000500110010000251000000000000000097
:1000F0000000000000000000000000000000000000
:1001000000000000000000000000000000000000EF
:1001100000000000000000000000000000000000DF
:1001200000000000000000000000000000000000CF
:1001300000000000000000000000000000000000BF
:1001400000000000000000000000000000000000AF
:10015000000000000000000000000000000000009F
:1001600000000000000000002A2B28000000000012
:100170000000000000000000000000290000000056
:100180002C1E3420212224342627252E362D3738C4
:10019000271E1F202122232425263333362E3738CD
:1001A0001F0405060708090A0B0C0D0E0F1011128B
:1001B000131415161718191A1B1C1D2F3130232D57
:1001C000350405060708090A0B0C0D0E0F10111255
:1001D000131415161718191A1B1C1D2F3130354C06
:1001E000000000000000000000000000000000000F
:1001F00000000000000000000000000000000000FF
:10020000000000007E0F00D4FFFFFFC70000007851
:100210000E0370006F0063006B0065007400000047
:100220000A03500065006B00650000000403090428
:1002300009025B00030100A0FA09040000010301A8
:100240000100092111010001224000070581030876
:10025000000109040100020300000009211101004E
:100260000122220007058203200001070503032065
:10027000000109040200010300000009211101002E
:100280000122B600070584032000011201000200CC
:100290000000086B7001000100010200010660FF10
:1002A0000961A1010962150026FF009520750881EA
:1002B000020963150026FF00952075089102C0050C
:1002C000010902A10185020901A1000509190129FD
:1002D00008150025019508750181020501093009FD
:1002E000311581257F95027508810609381581250C
:1002F0007F950175088106050C0A38021581257F56
:10030000950175088106C0C005010980A10185031A
:1003100019012AB700150126B70095017510810053
:10032000C0050C0901A101850419012AA0021501CB
:1003300026A002950175108100C005010906A101E2
:100340008506050719E029E71500250195087501BF
:1003500081020507190029EF1500250195F07501A7
:10036000810205081901290595057501910295017C
:1003700075039101C005010906A101050719E029CE
:10038000E715002501950875018102950175088121
:10039000010507190029FF150026FF0095067508BD
:1003A000810005081901290595057501910295013E
:1003B00075039101C00011241FBECFEFDAE0DEBF4C
:1003C000CDBF11E0A0E0B1E0EAE7F7E402C005909C
:1003D0000D92A639B107D9F722E0A6E9B1E001C034
:1003E0001D92A339B207E1F70E948B110C9492235E
:1003F0000C94000081E0089581E008950E94FC01C2
:10040000089508950E9401020895A5E0B0E0EBE090
:10041000F2E00C94072349835A8330919901898132
:100420009A81311119C0662399F0222389F00E9424
:10043000A208182F682F89819A810E947E086981FD
:100440007A81812F0E947B172596E3E00C94232369
:100450000E949008182FF3CF0E94A20869817A8128
:10046000F1CFFC01262F408151816281738184810B
:100470000E940502089581E00895CF93DF93EC0177
:1004800060E00E943102BE010E940202DF91CF9122
:100490000895E1E0F0E0DF0102C0AA0FBB1F6A95FA
:1004A000E2F7BD01DF0102C0AA0FBB1F4A95E2F7C8
:1004B0006A2B01C0EE0F2A95EAF7962F9823961320
:1004C00002C08E2B0895E0958E230895242F462F89
:1004D000682F8091A6010E9449020E94DE070895BC
:1004E0000E94351008950E943910089508950E94C1
:1004F0007B070E9476022FEF84E39CE0215080402E
:100500009040E1F700C0000008950E9477020E9429
:100510003A1B08950E9477020E944B1B08950F9387
:100520001F93CF93DF938C0161E00E943102EC01B5
:10053000B8010E948114811106C080E0DF91CF9143
:100540001F910F910895B801CE010E94FE018823EA
:10055000A1F3B801CE010E94C018882371F3B8013D
:10056000CE010E947015882341F3B801CE010E948C
:100570003218882311F3F8018281882361F0CA358B
:10058000FDE5DF0701F158F4C115ECE5DE0791F058
:10059000CE3DDC4591F0C8010E94FA01CFCFCC35A9
:1005A0008DE5D80769F090F0C73ADD45A1F70E94C4
:1005B0008A02C3CF0E948502C0CF0E945B0DF7CF95
:1005C0000E94950CE8CF0E949F0CE5CF0E94A30CDF
:1005D000E2CF0E946B1A0E94CD0308950E94D103BE
:1005E0000E94701A0895B0E0A0E0E9EFF2E00C94E8
:1005F0000323E82FF0E0E05AFE4FD490282F2695F1
:100600002695269530E0F901E050FE4F0491877061
:1006100010E0082E02C0159507950A94E2F70170C4
:100620001127F901E051FE4FE490F12C082E02C091
:10063000F594E7940A94E2F791E0E922FF24F901A6
:10064000E052FE4FC491D0E002C0D595C7958A957F
:10065000E2F7C170DD270115110519F081EE0E9446
:100660001C04E114F10419F086EE0E941C048D2D87
:100670000E941E05E114F10419F086EE0E94AD04FB
:100680000115110519F081EE0E94AD04CD2B19F072
:100690008CE20E941E05CDB7DEB7E7E00C941F2365
:1006A000EF92FF920F931F93CF93DF93EC01162FDE
:1006B0000AE08881882309F454C0813009F04EC0D3
:1006C0008981813099F47E0122E0E20EF11C8A8159
:1006D0000E941E05E7012196812F815050F3EFE91A
:1006E000FFE03197F1F700C00000F7CF823041F40E
:1006F0007E0182E0E80EF11C8A810E941C04EACF90
:10070000833041F47E01E2E0EE0EF11C8A810E940A
:10071000AD04E0CF843011F02196DDCF2A812296FE
:1007200090E080E0AE014F5F5F4F2053330B2A30E3
:10073000310548F0019778F2EFE9FFE03197F1F7E2
:1007400000C00000F7CF089FB001099F700D112471
:10075000C901860F971F2981EA01E4CF0E94F302A5
:10076000BACFCDB7DEB7E6E00C94202360E00E945C
:100770005003089508950E94BA03089581E00895F2
:100780000E94BE0308950895CF93C82F0E94BB0313
:100790008C2F0E94C003CF91089580E00E94C40373
:1007A00008950E941C190E94C40308950E941C19F8
:1007B00090919801981721F0809398010E94C403AA
:1007C0000895ABE0B0E0E7EEF3E00C9408234F832C
:1007D000588769877A878B8761110E94E00B1E8298
:1007E0001D8285E0FE013796DE01119601900D9283
:1007F0008A95E1F78C819D81892B61F449815A8129
:100800006B817C818D819E810E94090B2B96E2E099
:100810000C94242389819A8189238F3F79F3CE0117
:1008200001960E943B028111E9CFF0CFFC0180814B
:1008300091810E94CF080895CF93C82F8823C9F0D3
:100840008238C9F40E941C1981FD13C089E30E94FB
:10085000980B0E94010C2FEF81EE94E02150804014
:100860009040E1F700C0000089E30E94A00B0E94C5
:10087000010CCF9108958338A1F40E941C1980FDCA
:10088000F8CF83E50E94980B0E94010C2FEF81EEB8
:1008900094E0215080409040E1F700C0000083E5E3
:1008A000E4CF8438A1F40E941C1982FDE2CF87E4D2
:1008B0000E94980B0E94010C2FEF81EE94E02150D2
:1008C00080409040E1F700C0000087E4CECF8CEF7D
:1008D0008C0F813A90F46C2F80910001909101016E
:1008E0000E949119882329F08C2F0E94A00B0E944E
:1008F000010C8C2F0E94980BBACF80E28C0F8830AD
:1009000048F4C77081E001C0880FCA95EAF70E94D9
:10091000C30BADCFEBE5EC0FE33040F4F0E0EB5B65
:10092000FE4F808190E00E945119A3CFE8E5EC0FC3
:10093000E73150F4F0E0EE0FFF1FE95EFE4F8081DB
:1009400091810E94671995CFC03F08F492CF8C2FF8
:100950000E940F120E94E2128CCF882309F455C026
:10096000823879F40E941C1981FF4FC089E30E94EC
:10097000980B0E94010C89E30E94A00B0E94010CBD
:100980000895833859F40E941C1980FF3EC083E506
:100990000E94980B0E94010C83E5EECF843859F435
:1009A0000E941C1982FF31C087E40E94980B0E94AC
:1009B000010C87E4E1CF9CEF980F913AE8F290E2C6
:1009C000980F983050F4877091E001C0990F8A9584
:1009D000EAF7892F0E94C90BD1CF9BE5980F93307E
:1009E00028F490E080E00E945119089598E5980F4E
:1009F000973128F490E080E00E9467190895803FC5
:100A000020F00E9469120E94E21208951F93CF9372
:100A1000DF93182FEB010E941C04209739F4812FDB
:100A20000E94AD04DF91CF911F9108958FE99FE05F
:100A30000197F1F700C000002197EFCF70E060E070
:100A4000893311F460E570E00E940605089588235B
:100A500021F00E94C30B0E94010C0895882321F00D
:100A60000E94C90B0E94010C0895B0E0A0E0EBE3E6
:100A7000F5E00C9401236C01D62FC72FFC011281E5
:100A8000F580F2949FE0F9220E94B90BE82E8823AA
:100A9000B9F0E12E1123A1F08C2F807F803421F05A
:100AA00080E28D0F8830D0F08091750282FF16C0F1
:100AB00082E00E94640C0E94B90B91E0E82EE926C6
:100AC000BC2EB2948FE0B822FBE0FB1508F468C09E
:100AD000EB2DF0E0EC56FC4D0C94EB22E12CF0CF2A
:100AE0000C2F0F70C07F11F00295007F112399F039
:100AF000002359F080E28D0F883010F0D11107C02B
:100B0000802F0E94C30B0E94010C8D2F41C0802FAB
:100B10000E94D30BF8CF8D2F0E94AD04002309F45F
:100B20003FC080E28D0F883010F0D11104C0802FBB
:100B30000E94C90B03C0802F0E94D90B0E94010C98
:100B40002FC00C2F0F70C07FC03211F00295007FB4
:100B5000DD2381F0D13009F463C0112309F46DC0A5
:100B6000FF2009F463C0F601858180FFCECF8F702E
:100B700085835CC08091750282FD33C0112359F0DA
:100B8000002329F0802F0E94C30B0E94010C80E0FB
:100B90000E941C0405C080E00E94AD040111C7CF73
:100BA000EB2DE850FF0B349720F40E941C190E9493
:100BB000C403EE2089F00E94B50B80FD0DC0F60144
:100BC00012820E94AF0B0E94F207C6010E943B07EF
:100BD0000E94AF0B0E94FE07CDB7DEB7E9E00C9490
:100BE0001D23112389F0F11006C00E94E30B802B16
:100BF0000E942705D5CF21E0F212F7CF0E94E30B28
:100C0000802B0E94EA0BCCCFF11006C00E94F70B9C
:100C1000802F0E942E05C4CF31E0F31609F2F6CFE3
:100C2000112331F085E08F1508F4BACF802FE0CF83
:100C300094E09F1508F4B4CFEBCFFF2049F3D933EC
:100C400049F4FFEF27EE33E0F15020403040E1F768
:100C500000C000008D2F0E94AD04A2CF8C2F86957E
:100C60008695837069F0813009F09ACF8D2F9C2F83
:100C70009370111102C090E080E00E94671990CF3C
:100C80008D2F9C2F9370111102C090E080E00E9484
:100C9000511986CF8D2F112329F00E940F120E9427
:100CA000E2127ECF0E946912FACF8C2F837079F501
:100CB000111176CF4D2F429546954770440F440F42
:100CC0008D2F8F70042E01C0880F0A94EAF72D2F04
:100CD0002071D4FF07C02FE030E001C0220F4A95F9
:100CE000EAF72095C695C695C370822BC23049F0AD
:100CF00058F4C13019F00E94CC0752CF0E94C607A9
:100D00004FCF0E94D2074CCF0E94C30749CF869590
:100D1000112311F08C2F8170882309F441CF4D2FBE
:100D2000429546954770440F440F8D2F8F70042EC7
:100D300001C0880F0A94EAF72D2F2071D4FF07C055
:100D40002FE030E001C0220F4A95EAF72095C695C2
:100D5000C695C370822BC23049F058F4C13019F0E7
:100D60000E941D081DCF0E9417081ACF0E94230859
:100D700017CF0E94DE0714CFCF70112329F08C2FDC
:100D80000E94F2078D2F34CF8D2F0E942E058C2FBD
:100D90000E94FE0705CFD23F51F160F4D03FB9F079
:100DA000D13F81F0112309F449C0F110AECE8C2F50
:100DB0008F7121C0D33F11F1D43FA1F7809175020B
:100DC00082FD26C08C2F8F71112311F314C01123C3
:100DD00049F084E08F1508F4E3CE8C2F8F710E94C8
:100DE0000B08DECE95E09F1508F4DACEF6CF8C2FF7
:100DF0008F711111CDCF0E94F207D2CE112329F0AD
:100E00008C2F8F710E94E907CBCE0E94E507C8CED8
:100E1000112349F0CF718C2F0E94F20763E08C2FD1
:100E20000E94460CBDCE81E00E94640CE1E0EF150B
:100E300008F0B6CE82E00E94640CB2CEF110FFCE74
:100E40008C2F8F71A5CF0F931F93CF93DF93EC015E
:100E5000688179818A810E94DA088C010E942908C0
:100E60000E94C207B801CE010E943505DF91CF91E3
:100E70001F910F910895CF93DF93EC018B819C819B
:100E8000892B29F08881998189238F3F51F4DF9143
:100E9000CF910895CE010E942307CE010E943D020A
:100EA000F6CFCE010E948F028111F4CF0E94B90BC0
:100EB000882369F38A81882351F38091750282FF28
:100EC000E6CF82E00E94640CE2CF90E080E00E94D6
:100ED000511990E080E00E9467190E94E00B0E9487
:100EE000010C0E94FE120E94E21208950E94A80BBB
:100EF0000E94650708950E94D00B0E94760708950E
:100F000092959F70963091F058F4925F9F70923056
:100F100058F4803F19F030F4883E30F481E00895B1
:100F20009A5FF4CF843FD1F380E00895883EB0F318
:100F3000813FD1F7F3CFFC01808191810E94CF08DE
:100F40000E9480070895A5E0B0E0E9EAF7E00C947C
:100F500008232596E2E00C942423A6E0B0E0E3EB1E
:100F6000F7E00C9408232696E2E00C9424230895DD
:100F70000E94B70708950E94B8078093A7010E94B6
:100F80006507089508950E94BB0708959091A701F1
:100F9000892B0E94BB0708959091A70189230E9485
:100FA000BB0708959091A70189270E94BB07089568
:100FB0000E94B70708950E94D80708950E94DB0792
:100FC0008093A6010E946507089580E00E94DE07D5
:100FD000089591E001C0990F8A95EAF7892F0E9440
:100FE000DE07089521E030E001C0220F8A95EAF77C
:100FF0008091A601822B0E94DE07089521E030E057
:1010000001C0220F8A95EAF720958091A6018223DC
:101010000E94DE07089521E030E001C0220F8A958A
:10102000EAF78091A60182270E94DE070895909139
:10103000A601892B0E94DE0708959091A6018923BD
:101040000E94DE0708959091A60189270E94DE077D
:1010500008950895262F277091E001C0990F2A95D1
:10106000EAF723E0769567952A95E1F7FB01EE0F05
:10107000FF1FE60FF71FE40FF51F50E040E0682F59
:1010800070E08191DF0111979B01042E02C036951B
:1010900027950A94E2F721702195282729232827EC
:1010A0002C934F5F5F4F4330510559F70895A82F98
:1010B000A77023E0969587952A95E1F7FC01EE0F3E
:1010C000FF1FE80FF91FE60FF71F50E040E080E038
:1010D000219130E00A2E02C0369527950A94E2F756
:1010E00021703327042E01C0220F0A94EAF7822BC5
:1010F0004F5F5F4F4330510559F70895262F9330C6
:1011000070F48A3060F4682F70E08AE0989F600D78
:10111000711D11244AE951E0822F0E942A08089586
:10112000292F933068F48A3058F490E06AE971E02E
:101130003AE0239F800D911D11240E9457080895C5
:1011400080E00895CF92DF92FF920F931F93CF9389
:10115000DF936C010091A6018091A701082BC7E0E5
:10116000D0E010E0FC2EC8010C2E02C095958795AA
:101170000A94E2F780FD0CC02197A0F7F12C8F2D87
:10118000DF91CF911F910F91FF90DF90CF90089545
:10119000B6018C2F0E941E0F019771F3F0CFCF93F1
:1011A000DF93EC010E94A208BE010E941E0FDF9196
:1011B000CF9108951F93CF93DF93EB019091990105
:1011C000992339F0CB010E94CF08DF91CF911F9175
:1011D0000895882369F0CB010E94A208182F682F78
:1011E000CE010E947E08BE01812F0E941E0FEDCF0E
:1011F000CB010E949008182FF6CF1F93CF93DF9357
:10120000C091A80116E08091A9018C1304C0DF9160
:10121000CF911F910895D0E01C9FF0011D9FF00D0C
:101220001124E655FE4F4081518162817381848192
:1012300095810E94AD072196C770E5CF4091DA01F4
:101240005091DB016091DC017091DD018091DE0144
:101250009091DF010E94AD0708951F93CF93DF9314
:101260008091DF01807F09F049C08091DC018823F3
:1012700009F444C08091A801C091A9016091DA01EC
:101280007091DB01A091DD01B091DE01D62FD72353
:1012900016E0C81799F190E0109711F0DF3F19F4AC
:1012A00001968770F6CF189F9001199F300D112479
:1012B000F901E655FE4F41814713F2CF40814613B5
:1012C000EFCF42814111ECCF438154814A1B5B0B2C
:1012D000483C510528F78091DF018F708061809331
:1012E000DF01F901E155FE4F80818F7080618083BD
:1012F0008AED91E00E943B070E94FD08DF91CF91AB
:101300001F910895A1E1B0E0E8E8F9E00C94002312
:101310008C0185E0F801DE011D9601900D928A9501
:10132000E1F7F801E2808AEDC82E81E0D82E6091C5
:10133000DD017091DE016115710509F44EC19091D6
:10134000DA012091DB01892F82238F3F09F445C107
:1013500040815181A380B480F090DC01F501E61B4F
:10136000F70BFF2009F4EAC08091DF01382F307FAE
:10137000E83CF10508F0A3C031116DC0FE2C251327
:1013800016C0941314C0E11012C08F708061809356
:10139000DF010E941E09C6010E943B078091DF0108
:1013A000F80185838F2D6196EAE00C941C23A1142B
:1013B000B10429F0842F85238F3F09F027C180E0F5
:1013C000F82FF170DF2E80FF3CC08091A8012091A2
:1013D000A90136E0821315C04D875E878D859E85F5
:1013E0000E94CF08292F22952F702230F0F0243050
:1013F00018F59F70F1F0F8019581907FD1F4D12C10
:101400001EC090E0389FF001399FF00D1124E65581
:10141000FE4F6181651306C06081641303C0628161
:10142000E6120FC001968770D5CF9F7011F0882308
:1014300031F3805E883018F3C8010E943B07FD2C11
:10144000B1CFEE2009F4AECF8091DF0181608093AF
:10145000DF01F12CA7CF251306C0941304C0F801B7
:10146000EE2009F487C0C8010E949B07882319F168
:10147000EE2009F18091DF01803270F02091DA01D5
:101480003091DB0138872F831986BB86AA868C872B
:10149000CE0107960E943B0786E0F801AAEDB1E075
:1014A00001900D928A95E1F70E942D090E941E0974
:1014B000FF24F39477CFC8010E943B07F9CF311185
:1014C00013C07A2DB98AA88A6E2D89890E94A30734
:1014D0008AED91E00E943B0786E0F60111928A9521
:1014E000E9F70E941E09B5CF25130FC094130DC054
:1014F000E1100BC0F8018583C8010E943B0786E01C
:10150000F60111928A95E9F74DCFC8010E949B0719
:10151000882389F2EE2079F28091DF01803208F48D
:10152000BBCF2091DA013091DB013A8329831B8202
:10153000BD82AC828E83CE010196ACCFE83CF10532
:1015400008F03EC0FE2CEE2009F4B5CF25132AC0CA
:10155000941328C08091DF0180FD1BC0982F907FDD
:10156000C1F0F8018583903F31F0982F907F905F14
:101570008F70892B8583C8010E943B0786E0F801A4
:10158000AAEDB1E001900D928A95E1F70E941E0943
:1015900009CF86E0F801AAEDB1E001900D928A959D
:1015A000E1F700CFC8010E949B07811175CF8091A0
:1015B000DF0181608093DF01C8010E943B07F2CE0A
:1015C0007A2DB98AA88A6E2D89890E94A30786E0A0
:1015D000F60111928A95E9F7D9CFEE2009F46BCF85
:1015E000C8010E949B07F82E882309F464CF86E087
:1015F000F801AAEDB1E001900D928A95E1F78AED2C
:1016000091E00E9416040E942D09C0CF81E08E2532
:10161000D7CEACE0B0E0EFE0FBE00C9407234F83C3
:10162000588769877A878B879C87CE0107960E94A7
:101630008209882369F08A859B85892B39F04F813F
:101640005885842F85238F3F09F06BC016E05FC05B
:1016500086E0FE013796DE01119601900D928A9583
:10166000E1F78A859B85892B89F38F81988589236A
:101670008F3F61F32091A90130E0C9010196877085
:1016800099274091A8014817190671F40E947B0719
:101690001092A9011092A80186E0EAEDF1E0DF01C5
:1016A0001D928A95E9F7D2CF96E0929FD001939F41
:1016B000B00D1124A655BE4FFE01319601900D923A
:1016C0009A95E1F78093A9010E94FD08BFCF819F01
:1016D000C001112486559E4F0E9482098823E9F09B
:1016E000E091A8011E9FF0011124E655FE4F4081B4
:1016F000518162817381848195810E94AD078091BF
:10170000A80190E00196877099278093A8018091A5
:10171000A8019091A9018913DACF2C96E3E00C94EB
:10172000232369857A858B859C850E94AD078ECFA2
:10173000682F80910001909101010E94111A089573
:10174000682F80910001909101010E941F1A089555
:1017500080910001909101010E942D1A08958091BD
:101760000002859585958595089580910002877082
:10177000089590910002977081E009F480E0089547
:1017800080912302089590912302892B8093230254
:1017900008958095909123029823909323020895B1
:1017A00010922302089590912202892B80932202A5
:1017B0000895809590912202982390932202089593
:1017C00010922202089580910102089508950E94C6
:1017D000E60B08959091750292FF08C09091010266
:1017E000981721F0809301020E94E70B08958091E1
:1017F0000102882329F01092010280E00E94E70B89
:101800000895CF93DF93E0910001F0910101809161
:1018100023028083E0910001F09101018081909189
:101820002202892B808390910102992381F0E0911B
:101830000001F09101018081892B8083809100015A
:10184000909101010E947D1981110E94F70BC091B6
:101850000001D091010140E250E060EE71E0CE0164
:101860000E944323892B59F080E2FE01A0EEB1E0F3
:1018700001900D928A95E1F7CE010E942919DF911E
:10188000CF91089508950E94420C08959091750299
:1018900092FF11C098E0899F90011124622B609300
:1018A00000020E94F207809100028595859585953A
:1018B0000E94430C08950E94F207089510920002BE
:1018C00080E00E94430C0895909100028095892346
:1018D00080930002282F277091F4282F082E000CE7
:1018E000330B9217130659F09091750292FF07C0BF
:1018F0008595859585950E94FE070E945E0C08954A
:101900009091750292FB222720F9281769F080FB3D
:1019100092F99093750280917402909175020E94E1
:10192000D20C82E00E94640C08958091750282FBC3
:10193000882780F991E089270E94800C089581E032
:101940000E94800C089580E00E94800C08956FEF43
:101950007FEF90E080E00E947C23089590E080E09B
:101960000E945823883E9E4F19F40E941C1408952B
:1019700080E0089582E090E00E945023089583E083
:1019800090E00E9450230895CF9384E090E00E945D
:101990005023C82F82E290E00E945023982F8C2F72
:1019A000CF910895CF93C92F682F84E090E00E94D3
:1019B0005E236C2F82E290E00E945E23CF91089517
:1019C000AB01BC018FE090E00E9470230895AB0151
:1019D000BC0183E190E00E947023089560E070E014
:1019E000CB010E94E70C089560E070E0CB010E94FB
:1019F000E00C0E94EE0C089568EE7EEF90E080E02F
:101A00000E947C2360E082E090E00E945E2360E020
:101A100083E090E00E945E231092A70160E084E0E2
:101A200090E00E945E2364E082E290E00E945E23E8
:101A300060E085E090E00E945E2360E086E090E058
:101A40000E945E236FEF87E090E00E945E2340E0FB
:101A500050E0BA0188E090E00E94702360E08DE0E1
:101A600090E00E945E2340E050E0BA0188E190E0FF
:101A70000E94702360E087E190E00E945E2340E0D6
:101A800050E0BA018CE190E00E94702370E060E0C9
:101A900080E290E00E947C2340E050E0BA0188E1BF
:101AA00090E00E94702380E00E9435140E9464142C
:101AB0000E94F40C08950E94FC0C0895682F8EE09B
:101AC00090E00E945E2308950E94FB1A60932E020C
:101AD00070932F02809330029093310260932A0218
:101AE00070932B0280932C0290932D0208950895F9
:101AF00008950E94780D089508950E947C0D089520
:101B00008DEF9FE00E9412190E94770D0E94790DBF
:101B1000089581E008950E94890D0895089508951B
:101B20000E948E0D0E948F0D08950E9419100E9430
:101B3000C30308950E94E61A0E9474140E94EF10D5
:101B40000E94950D0E947D0D0895AAE0B0E0EBEA99
:101B5000FDE00C94FD220E940511A82E81110E9427
:101B6000640D54E2852E52E0952E10E000E0702EB8
:101B7000802F0E943C106C01F401E190F1904F0124
:101B8000E816F90609F444C08091320281FD0E94F2
:101B90004510C7018C259D25B12CEE24E394F12C32
:101BA0009C012E213F21232B69F10E948B0D88235C
:101BB000B1F0BE827F82CE20DF2081E0C114D1044B
:101BC00009F480E088870E94EF1A8160782F9A8755
:101BD00089874E815F8168858A850E94E103000FB5
:101BE000111FF801EC5DFD4F80819181E826F926F7
:101BF000F182E08281E0A11001C080E02A96EDE050
:101C00000C941923B394EE0CFF1CFAE0BF12C8CF5A
:101C10000F5F1F4F0330110509F0A9CF8FEF8983A4
:101C20008A831B820E94EF1A8160782F9D838C83A8
:101C300049815A816B818D810E94E103DBCF0E9433
:101C4000A50D0E9420130E94D6030895CF93DF9321
:101C50000E94230FEC01811521E5920708F042C094
:101C6000811530E5930708F09DC0883E910530F559
:101C7000803E910508F092C0883A910588F4853A33
:101C8000910508F084C08130910509F487C0009760
:101C900009F484C0049708F081C0D0E0C0E07EC0A1
:101CA0008F3B9105D0F7C85AD0E0CC0FDD1FC85B41
:101CB000DE4F0990D881C02DD46470C08115904248
:101CC00050F4C11581E0D80708F068C0C03FD105C5
:101CD00020F3D06563C0C11590E4D907F0F2DF703E
:101CE000D06A5CC0811525E5920700F5811534E5C1
:101CF000930708F08BC0811543E5940708F073C083
:101D0000C11582E5D80708F469C0CE018370992710
:101D100021E030E002C0220F331F8A95E2F7C6951A
:101D2000C69580E2C89FE001112454C0C11599E511
:101D3000D907A8F4C11528E5D20708F06CC0C11571
:101D400036E5D30708F0A9CF8C2F0E94BA0FC82F11
:101D5000D0E0DC2FCC27CC27DF71D0621FC0C115AB
:101D60004AE5D40708F45CC0CE0190568115904234
:101D700008F093CF8D2F8F710E94BA0F90E0982FAB
:101D8000882788279F719C012C2BE901E6CFC55A33
:101D9000D0E0CA58DE4FC881D0E0D064CE01DF91D8
:101DA000CF910895E4E096958795EA95E1F78370E1
:101DB0002C2F26952695237040E2249F9001112414
:101DC000382B8C2F8370C1E0D0E002C0CC0FDD1F18
:101DD0008A95E2F7C22BD32BDC68E0CFDC2FCC272F
:101DE000C16FD06ADBCF8370992721E030E002C059
:101DF000220F331F8A95E2F7C695C69590E2C99FD8
:101E0000E0011124C22BD32BDA68C8CFD82FCC27FE
:101E1000C46FD06AC3CFDC2FCC27C06FD06ABECFCF
:101E20008C2F8F700E94BA0F34E0D695C7953A95E3
:101E3000E1F7CF709C2FEC01D069B0CF0E947B17E7
:101E40000E94260E089582389105B1F1B0F48133D5
:101E5000910509F475C048F48932910509F469C007
:101E60008A32910509F473C008958533910509F408
:101E700059C08933910501F10895833E9105A9F177
:101E800038F4803E9105F9F0823E910549F10895BC
:101E9000863E9105A9F1873E9105C9F1843E9105E1
:101EA00019F52091750221FF1FC08091740284FDF5
:101EB00014C087EE90E00895209174022370A1F081
:101EC00080EE90E008952091740220FD47C030918B
:101ED000750230FF09C024FF44C090E080E004C0D8
:101EE0002091740222FDF7CF08952091740222FD03
:101EF0003BC03091750230FDE3CF24FFF5CFEDCF2D
:101F00002091740223FFF0CF24FDE7CFD2CF2091A0
:101F1000740223FD2CC03091750231FFEECF84EEA8
:101F200090E008952091740225FFDECF89E290E0D1
:101F300008952091740225FFD7CF85E390E008959E
:101F40002091740226FFD0CF8AE290E0089520917C
:101F5000740226FFC9CF81E390E0089589E390E001
:101F6000089583EE90E0089582EE90E0089586EE65
:101F700090E008959091740292FF06C0282F287176
:101F80002830F9F4877F846093FF06C0282F2871DA
:101F90002831F1F4877E84612091750220FF06C00C
:101FA000382F38713830D9F4877F816021FF06C01F
:101FB000282F28712831D1F4877E816194FD877E96
:101FC0000895282F24712430F9F68B7F8860DCCFA8
:101FD000282F2471243101F78B7E8861DDCF382FC3
:101FE0003171313019F78E7F8860E0CF282F217151
:101FF000213121F78E7E8861E1CF80E008950E9433
:10200000A70C08950E9405118FE39CE90197F1F751
:1020100000C000000E94051180E00E943C1080FF7B
:1020200004C00E94FF0F0E943A1B08950E940210F4
:1020300008950E94AE0C811102C00E945B0D0E94A7
:10204000BA0C809332020E94C40C90937502809364
:1020500074020E9416100E94BF0C0E94C307809158
:10206000A6010E94DB07089508950E943410089588
:1020700008950E9438100895E82FF0E0EE0FFF1F3A
:10208000E458FD4F808191810895089580EA8A95F2
:10209000F1F7089500C008950E9446100895F8943D
:1020A000E82FE295EF70F0E031A1282F2F7081E04A
:1020B00090E001C0880F2A95EAF7982F9095932316
:1020C00091A392A1892B82A378940895CF93DF9353
:1020D00087EF0E944F1081E30E944F1084E90E9415
:1020E0004F10C9E7D1E089918F3F11F00E944F1046
:1020F00081E0C338D807B9F7DF91CF910895AF9247
:10210000BF92DF92EF92FF920F931F93CF93DF93D3
:102110008C01D62EC62FD0E0CE018D579E4F7C016C
:10212000FC0120812F3F09F44DC0F894E22FE29585
:10213000EF70F0E031A12F7081E090E001C0880FD6
:102140002A95EAF7932F982B91A392A18095892342
:1021500082A378940E944A10E9E7F1E043E851E055
:1021600021E030E0B12CA12C61916F3FA9F1A62FA5
:10217000A295AF70B0E090968C9190E06F7002C025
:10218000959587956A95E2F780FD26C0C901A82A32
:10219000B92A220F331F4E175F0731F7F7018081ED
:1021A0008F3F11F00E944F1061E0A114B10409F4B7
:1021B00060E08D2D0E944C10CC0FDD1FC00FD11F91
:1021C000B982A882DF91CF911F910F91FF90EF907C
:1021D000DF90BF90AF90089590E080E0D8CF0E944C
:1021E000661086E0ECE7F2E0DF01982F1D929A95E9
:1021F000E9F7E6E7F2E0DF011D928A95E9F783E06F
:102200000E9444110E9470020895A6E0B0E0EBE045
:10221000F1E10C9405238E010F5F1F4F86E0F8015A
:1022200011928A95E9F760E0C8010E947F1061E091
:10223000C8010E947F1062E0C8010E947F1046E042
:1022400050E0B80186E792E00E944323FF24F39414
:10225000009709F4F12C892B41F086E0F801A6E7FC
:10226000B2E001900D928A95E1F72F2D43E06CE7E3
:1022700072E086E792E00E9445110E9473028F2D62
:102280002696E5E00C9421230895FF920F931F9367
:10229000CF93DF93F82E092F162FD72FC42F222389
:1022A00049F081E0809335020E94EF1A9093340246
:1022B00080933302809135028823A1F0809133020C
:1022C000909134020E94071B059760F0EF2DF02FCC
:1022D000A12FBD2F90E080E0D0E08C179D073CF04F
:1022E00010923502CDB7DEB7E5E00C9421232191A1
:1022F00031912D933D930196F0CF0E94361D0E949F
:102300009A0D0E94431D08950E94481D0E941F0EB1
:102310000E94621D08950E94881A0E941C1D0E943E
:10232000800D0E947D110E9484110E94900DFBCFB0
:1023300080913C0280FF0DC06091070170E0660F44
:10234000771F6038710570F56115710569F1862F89
:10235000089581FF07C06091070184E0689FB00184
:102360001124EFCF6091070182FD0AC080913B02EA
:102370008823A9F02091060160910701821710F0CF
:1023800088E0ECCF869FC001112433E0880F991FAD
:102390003A95E1F7622F70E00E94D722D2CF68E031
:1023A00070E0D5CF8FE7089581E0089580913C02D9
:1023B00080FF0CC06091030170E07595679575957D
:1023C00067956115710549F1862F089581FF06C053
:1023D0006091030170E075956795F3CF60910301FB
:1023E00082FD0BC090913A029923A1F06091020105
:1023F00080910301961738F0682F70E060387105FE
:1024000000F38FE70895899FC001112470E00E94B6
:10241000D722F4CF61E070E0D7CF81E00895803F0C
:1024200031F40E9498118195809340020895813F74
:1024300019F40E949811F8CF823F31F40E9498114C
:10244000819580933F020895833F19F40E9498116B
:10245000F8CF893F29F40E94D61180934102089554
:102460008A3F21F40E94D6118195F7CF8B3F31F43A
:102470000E94D61181958093420208958C3F19F4F1
:102480000E94D611F8CF9CE0980F953070F4845FCD
:10249000990B21E030E001C0220F8A95EAF7809184
:1024A0003E02822B80933E0208958D3F31F480914D
:1024B0003C02816080933C0208958E3F21F480911C
:1024C0003C028260F7CF8F3FB9F780913C02846075
:1024D000F1CF40913F02803F59F48091400287FF45
:1024E0000DC01092400241110BC010923B0208C077
:1024F000813F81F48091400218169CF3442381F0BF
:102500008091410290914202892B09F05AC01092A9
:102510003A020895823F49F447FFF0CF10923F02FC
:10252000809140028111ECCFE0CF833F19F4141663
:10253000ACF3E4CF90914102893F29F41916F4F6E7
:1025400010924102DBCF8A3F19F497FFD7CFF8CF23
:10255000909142028B3F29F497FFD0CF1092420214
:10256000CDCF8C3F19F41916CCF3C8CF9CE0980F4F
:10257000953090F4845F990B21E030E0B90102C0FE
:10258000660F771F8A95E2F7CB01809590913E0206
:10259000892380933E02B2CF8D3F31F480913C027B
:1025A0008E7F80933C02AACF8E3F21F480913C0223
:1025B0008D7FF7CF8F3F09F0A1CF80913C028B7FB9
:1025C000F0CF08950E94EF1A9C0190913F028091F4
:1025D0004002982B21F030933902209338029091D9
:1025E000410280914202982B21F0309337022093D0
:1025F00036028DE392E00E944319089586E0EDE3F0
:10260000F2E0DF011D928A95E9F710923B021092E9
:102610003A0210923C020895FC01828181110EC0A1
:10262000838181110BC08481811108C091E0858173
:10263000811101C090E0892F8170089581E0FCCF65
:10264000A6E0B0E0E6E2F3E10C94072386E0EDE3D8
:10265000F2E0DE01119601900D928A95E1F7109259
:102660003F021092400210924102109242028B816E
:102670009C81892B89F080913802909139020E94C7
:10268000071BAC0190913B029923C9F1809108018D
:102690008417150608F440C08D819E81892B91F026
:1026A00080913602909137020E94071BAC019091F5
:1026B0003A02992309F471C0809104018417150628
:1026C00008F479C0BE016F5F7F4F8DE392E00E94F6
:1026D0003F1A811105C08DE392E00E940C13811115
:1026E0000E94E21286E0FE013196ADE3B2E0019075
:1026F0000D928A95E1F72696E3E00C94232320912E
:1027000009018AE0289F900111242417350720F63B
:102710009F5F90933B0202C09F3FD1F71B81112323
:1027200059F00E9498119FEF11160CF491E0899FC7
:10273000802D112480933F021C81112359F00E94A7
:1027400098119FEF11160CF491E0899F802D1124B0
:102750008093400230913F02332309F49DCF2091B2
:102760004002222309F498CF45EB3403C001112421
:10277000992359F090933F0245EB240390011124D3
:10278000332339F03093400287CF81E080933F02BA
:10279000F3CF81E0809340027FCF209105018AE052
:1027A000289F900111242417350708F08BCF9F5FD5
:1027B00090933A0202C09F3FD1F71D81112359F037
:1027C0000E94D6119FEF11160CF491E0899F802D85
:1027D0001124809341021E81112359F00E94D611C9
:1027E0009FEF11160CF491E0899F802D11248093A6
:1027F000420230914102332309F464CF2091420216
:10280000222309F45FCF45EB3403C001112499233F
:1028100059F09093410245EB240390011124332396
:1028200039F0309342024ECF81E080934102F3CFE2
:1028300081E08093420246CF83E290E00E945023E1
:10284000823289F484E290E00E945023873059F468
:1028500085E290E00E94502391E0863109F090E0FB
:10286000892F8170089580E0FCCFCF93C82F6FEF40
:10287000811162E283E290E00E945E236FEFC1115A
:1028800067E084E290E00E945E236FEFC11166E191
:1028900085E290E00E945E23CF910895089586E23C
:1028A00090E00E945023682F70E090E080E008954F
:1028B0000895CF93C62F0E9458146C2F86E290E0A3
:1028C0000E945E23CF91089580E00E94351460E05D
:1028D00070E0CB010E9459140E94FD160E94D81787
:1028E00081E00E94351408950E944E140E944F14F6
:1028F0000E9458140E941C14811102C00E9464148A
:102900000895CF93FB01C281CC2309F19C01225190
:102910003F452031310520F582510E94E817C0E083
:102920008C2FCF91089581E00E94F20743E062E08E
:1029300081E00E946602F3CF81E00E94FE0743E03F
:1029400062E081E00E946602EBCF82E0F6CF803148
:10295000FFE59F0789F381319F45B9F3C1E0E0CFDF
:102960008031EFE59E07F9F281319F45C9F682E09B
:10297000DBCF2FEFFC0120830895EF92FF920F939E
:102980001F93CF93DF93EC01062FE881E150E331F1
:1029900008F05DC0F0E0E056FC4D0C94EB2219828B
:1029A00089E08A83602FCE010E94EF1BCDB7DEB78E
:1029B000E6E00C9420238981823069F0833071F045
:1029C0008130D9F40E94FB1A0E94F1226A837B8332
:1029D0008C839D83E7CF0E944F14F6CF7E0110E0D9
:1029E000812F0E943C10F701928383831F5FF2E0E6
:1029F000EF0EF11C1330A1F7D5CF602FCE010E944E
:102A0000B914D0CF89818230C1F76A817B818C81F2
:102A10009D810E94F1220E945914C4CF4B816A818A
:102A200089810E94BF169827892798279D838C83C8
:102A3000B9CF2C813D813227232732274B816A81F0
:102A400089810E94E116AECF0E94FD16ABCF8FEFB9
:102A50008883A8CF0E9489178983A4CF0E948B17EF
:102A60009827892798279A8389839CCF6B8170E068
:102A700089819A81AE014C5F5F4F982789279827FB
:102A80000E948E178FCF6B8170E089819A81AE0191
:102A90004C5F5F4F9827892798270E94B31782CFF2
:102AA0000E94D8177FCF0E94AD16D6CF6B8170E001
:102AB00089819A81AE014C5F5F4F982789279827BB
:102AC0000E9435176FCF6B8170E089819A81AE01CA
:102AD0004C5F5F4F9827892798270E94581762CF2D
:102AE000CF93DF93EC01FB018281882309F433C18A
:102AF000C330FDE5DF07C0F5CA3F9CE5D90730F4D8
:102B00009E0122503C4524313105B0F50E94C40C91
:102B10009093750280937402C1318CE5D80709F453
:102B2000EEC008F069C0C930ECE5DE0709F4D5C095
:102B3000C8F5C5308CE5D80709F4C7C000F5C33027
:102B4000ECE5DE0709F4B9C008F0BBC0C230DC45D3
:102B500009F4ADC080917402909175020E94D20C6C
:102B60000E947B0780E008C0C136EDE5DE0771F208
:102B7000C53AFDE5DF0751F2DF91CF9108958091CD
:102B800074028062C7309CE5D90709F493C0809134
:102B900074028061C830DC4508F48CC080917402F6
:102BA000806488C0809174028B7FCD30FCE5DF07A4
:102BB00009F480C098F4809174028E7FCB309CE53C
:102BC000D90709F477C0809174028C60CC30DC4561
:102BD00008F470C0809174028D7F6CC08091740283
:102BE0008F7ECF30FCE5DF0709F464C008F47BC0BA
:102BF000809174028F7D5EC0CD3F9CE5D90709F4BA
:102C00007AC050F5C531FCE5DF0709F486C098F4B9
:102C100080917402837FC3319CE5D90709F44AC0CF
:102C200008F471C00E947B0790917402892F97FB72
:102C300087F980583FC0CB3FFCE5DF0709F449C066
:102C400008F055C0809175028160CA3FDC4509F0EB
:102C500081CF809375027ECFC130EDE5DE0709F4A8
:102C600068C0A8F4CF3F8CE5D80709F452C0809122
:102C700075028360C115DD4560F380917502982F60
:102C8000909591708E7F892B90FB81F9E2CFC136B0
:102C9000EDE5DE0709F451C0C53AFDE5DF0709F4AB
:102CA00053C0C230DD4509F055CF80E043C080916C
:102CB00074028160809374024DCF809174028260AF
:102CC000F9CF809174028460F5CF8091740288609E
:102CD000F1CF809175028260BCCF0E947B0780910A
:102CE00074028068E7CF80917402877FE3CF809180
:102CF00075028E7FAECF809175028D7FAACF8091B5
:102D000074028F7BD7CF0E947B07809174028F77EC
:102D1000D1CF809175028C7F9CCF8091740282FB11
:102D2000992790F921E0922790FB82F990FB83F993
:102D3000C1CF81E00E945E0D0DCF90917402892F6A
:102D40008F7E94FF8061B6CF90917402892F8E7F21
:102D500090FF8160AFCF81E00FCF84E0089550E015
:102D6000440F551F94E1699F400D511D11249CE3B0
:102D7000899F400D511D1124CA01879608950F9314
:102D80001F93CF93DF938430C8F46330B8F44A3094
:102D9000A8F40E94AF168C010E945023C82FD0E0E7
:102DA000DC2FCC27C80101960E9450239E01282BBE
:102DB000C901DF91CF911F910F91089590E080E0BC
:102DC000F8CF0F931F93CF93DF93122F032F8430ED
:102DD00078F4633068F44A3058F40E94AF16EC017E
:102DE000602F0E945E23612FCE0101960E945E2318
:102DF000DF91CF911F910F910895AF92BF92CF9223
:102E0000DF92EF92FF921F93CF93DF938CEAC82E4D
:102E100080E0D82ED0E07601C0E014C0F501259105
:102E20003491412F6C2F8D2F0E94E11682E0A80E65
:102E3000B11C1F5F1A3091F784E1E80EF11CCF5FDF
:102E4000C33019F0570110E0E9CFDF5F8CE3C80E03
:102E5000D11CD43001F7DF91CF911F91FF90EF90FB
:102E6000DF90CF90BF90AF900895EF92FF920F93B5
:102E70001F93CF93DF93EC018A017C01E60EF71ECE
:102E8000CE018796CE15DF0529F4CDB7DEB7E6E093
:102E90000C942023C03FD10540F40E945023F80138
:102EA00080830F5F1F4F2196EBCFF8011082F9CF7F
:102EB000B0E0A0E0EEE5F7E10C9402237C016A01AA
:102EC0008C01060F171FEC01CE018796C017D107A2
:102ED00029F4CDB7DEB7E8E00C941E23C03FD1053E
:102EE00040F4FE01EE19FF09EC0DFD1D60810E940A
:102EF0005E232196E9CF462F843040F4733030F4BE
:102F00006A3020F4672F0E94BF16089590E080E099
:102F1000089580E1089589EE92E00895EF92FF927E
:102F20000F931F93CF93DF93EC018A017C01E60E90
:102F3000F71ECE01895E9E4FCE15DF0529F4CDB771
:102F4000DEB7E6E00C942023C93E22E0D20740F42D
:102F50000E945023F80180830F5F1F4F2196E9CF15
:102F6000F8011082F9CFB0E0A0E0E9EBF7E10C94B2
:102F700002237C016A018C01060F171FEC01CE01B0
:102F8000895E9E4FC017D10729F4CDB7DEB7E8E0C0
:102F90000C941E23C93E22E0D20740F4FE01EE1934
:102FA000FF09EC0DFD1D60810E945E232196E7CF95
:102FB000CF93DF93C7E1D1E060E0CE010E945E23B2
:102FC0002196C11584E0D807B9F7DF91CF91089514
:102FD000A4E0B0E0EEEEF7E10C940323F82E8FE0CE
:102FE0008F1548F18FEF93E00E945023811123C089
:102FF00007E111E0F11023C019821A821B821C82A2
:10300000DD24D39478018FEFE81AF80AC8010E94F2
:10301000502389831A82882371F09FEF980F933091
:10302000D8F48A83D9820E5F1F4FC7010E945023B4
:103030008B83811112C02496E7E00C941F230115A5
:1030400084E01807C1F3C8010E945023811101C018
:10305000FA940F5F1F4FCECF8701CE0101960E94D9
:10306000B603D0CFCF93DF93EB0186319C4511F5AA
:103070000E94C00B9A81992399F08A7A91E009F411
:1030800090E090934302811109C089E20E94980B5D
:103090000E94010C80E0DF91CF91089585E3F6CF87
:1030A00080914302811104C089E20E94A00BF0CFFD
:1030B00085E3FBCF81E0EFCF0F931F93CF93DF9397
:1030C000C42FD22FFC0182818823C9F0409346028D
:1030D0000E94EF1A909345028093440280E28C0F85
:1030E000883040F4C77081E001C0880FCA95EAF7C4
:1030F0000E942705DF91CF911F910F9108951091A4
:103100004602141332C080914402909145020E94FD
:10311000071B883C910548F5C0E2CD0F1D17B9F09B
:1031200080E2810F883040F4177081E001C0880F81
:103130001A95EAF70E942E05C83048F481E09D2FC9
:10314000977001C0880F9A95EAF70E942705802F93
:103150000E941E05C83070F6D77081E001C0880F4C
:10316000DA95EAF70E942E05C5CF80E28C0F8830F1
:1031700008F6C77081E001C0880FCA95EAF7F2CF60
:103180000F939C01CB01233F4CE5340759F1A8F480
:10319000283DFCE53F0701F1293D4CE53407D1F11D
:1031A000273D3C4591F406E221EE41EE67ED7CE5DA
:1031B0000E945C1880E00F910895253FFCE53F07D1
:1031C000E9F0B0F0263F3C45F9F0FC01828188230C
:1031D00039F110924602EFCF07E225EE45EE68ED99
:1031E0007CE5E6CF06E221EE40EE63EF7CE5E0CF42
:1031F00007E225EE44EE64EF7CE5DACF06E221EE4D
:1032000042EE65EF7CE5D4CF07E225EE46EE66EFB1
:103210007CE5CECF08E221E045EE69ED7CE5C8CF44
:1032200081E0C9CF90939701809396010895909380
:103230004C0280934B020895E0914B02F0914C02B6
:10324000309729F00190F081E02D0995089580E0F4
:103250000895E0914B02F0914C02309799F0209143
:103260001601222359F02091740227FF07C0DC01C8
:103270002C9111962C93119726E02C930280F381C8
:10328000E02D09950895E0914B02F0914C023097A2
:1032900039F022E0DC012C930480F581E02D0995C2
:1032A00008952091490230914A022817390771F098
:1032B00090934A0280934902E0914B02F0914C02B4
:1032C000309721F00680F781E02D0995089520912F
:1032D0004702309148022817390771F0909348024D
:1032E00080934702E0914B02F0914C02309721F01D
:1032F0000084F185E02D09950895FC0132968091B6
:103300001601882321F0809174029EE187FF96E0E8
:1033100080E0915008F4089521912223D1F38F5F2A
:10332000F8CF662301F1209116012223F1F02091BC
:10333000740227FF1AC0462F4695469546954E3192
:1033400090F4677021E030E002C0220F331F6A95CD
:10335000E2F7840F911DFC01828190E0282339233C
:1033600081E0232B69F480E00895FC0132960896F1
:103370002191261721F0E817F907D1F7F4CF81E062
:1033800008959C01FC0132969FEF80E04191461721
:1033900051F09F3F19F4411101C0982F8F5F863083
:1033A000A9F79F3F09F40895290F311D97FD3A951C
:1033B000F90162830895FC01329608962191261343
:1033C00003C0DF0111971C92E817F907B9F70895B8
:1033D000E62FE695E695E695EE3168F4E80FF92FCD
:1033E000F11D677021E030E001C0220F6A95EAF715
:1033F0008281822B82830895E62FE695E695E695F5
:10340000EE3170F4E80FF92FF11D677021E030E024
:1034100001C0220F6A95EAF7209582812823228332
:10342000089520911601222339F02091740227FF7C
:1034300003C00E94E81908950E94C11908952091BF
:103440001601222339F02091740227FF03C00E9445
:10345000FC1908950E94DB190895FC0132968091B1
:103460001601882351F08091740287FF06C08EE117
:10347000DF011D928A95E9F7089586E0F9CF46E0CD
:1034800050E00E94432321E0892B09F420E0822FA1
:10349000089508950E94491A0895811106C081E097
:1034A00080934D020E944A1A089582E0F9CF83E08A
:1034B00080934D020E944A1A08950E944D1A089561
:1034C00081E080934D020E944A1A08950E94601A7A
:1034D0000895089508950E946A1A08950895089518
:1034E0000E94691A0895CF930E946E1A0E940511D6
:1034F0000E946F1AC0E08C2F0E943C10892B31F47F
:10350000CF5FC330C1F780E0CF91089581E0FCCF59
:1035100085B7806885BF85B7806885BF08951F928D
:103520001FB61F9211248F939F93AF93BF938091E7
:103530004E02811113C08091820290918302A0916A
:103540008402B09185024196A11DB11D8093820233
:1035500090938302A0938402B0938502BF91AF91B0
:103560009F918F911F901FBE1F90189580918A0286
:10357000843031F10E94E90210924E0288E190E01D
:1035800020E40FB6F894A895809360000FBE2093B6
:10359000600083B7817F846083BF83B7816083BF0E
:1035A0007894889583B78E7F83BF0FB6F894A895DB
:1035B00080916000886180936000109260000FBE6F
:1035C00008950E947B070E94EE02089582E084BD68
:1035D00093E095BD9AEF97BD80936E0008952FB745
:1035E000F8948091820290918302A0918402B0911C
:1035F00085022FBF08952FB7F894609182027091D1
:10360000830280918402909185022FBF08959C01CE
:103610004FB7F8948091820290918302A091840226
:10362000B09185024FBF821B930B089578941F922F
:103630001FB61F9211248F939F93AF93BF938091D6
:10364000820290918302A0918402B091850201963A
:10365000A11DB11D8093820290938302A0938402E6
:10366000B0938502BF91AF919F918F911F901FBE24
:103670001F90189587E797E79093010880930008BB
:1036800088E19AE00FB6F894A895809360000FBE89
:1036900090936000FFCF88E19AE00FB6F894A89568
:1036A000809360000FBE90936000FFCF8091720204
:1036B000089508959C0184E08093E9009FEF809134
:1036C000E800915085FD06C085ED8A95F1F7000070
:1036D0009111F5CF8091E80085FF0CC050E040E0EB
:1036E00066E070E0C9010E94011E8091E8008E77BB
:1036F0008093E8000895CF93DF93EC018091160149
:103700008823B1F18091740287FF32C060E284E0C7
:103710008093E9008FEF9091E800815095FD06C0FD
:1037200095ED9A95F1F700008111F5CF8091E800B1
:1037300085FF1BC08091160170E050E040E08111D0
:1037400004C050E040E068E070E0CE010E94011E3D
:103750008091E8008E778093E80080E2FE01A2E588
:10376000B2E001900D928A95E1F7DF91CF91089533
:1037700068E081E0CDCF80934F0270935102609357
:10378000500280918A028430F9F48093E9008FEF2F
:103790009091E800815095FD06C095ED9A95F1F75E
:1037A00000008111F5CF8091E80085FF0DC050E049
:1037B00040E063E070E08FE492E00E94011E80919F
:1037C000E8008E778093E8000895BC0184E00E94B1
:1037D000BB1B0895BC0183E00E94BB1B0895CF93DF
:1037E000FC01603221F580918A02843001F5C0919C
:1037F000E900CF702091EC00922F917020FD90E8AD
:10380000C92B82E08093E9008091E80080FF0CC022
:1038100050E040E060E270E0CF010E94011E809124
:10382000E8008E778093E800CF70C093E900CF91D5
:10383000089580918902811109C00E94E01F0E94B1
:103840003D208091E20084608093E2000895109210
:10385000890208950E94601A08956091860281E0AD
:10386000611101C080E00E94571A089590918A0268
:1038700081E0943009F080E0609186020E945D1A38
:10388000089542E061EC81E00E945C1F42E261EC3D
:1038900084E00E945C1F42E261EC82E00E945C1FB7
:1038A00042E260EC83E00E945C1F90918A0281E01A
:1038B000943009F080E0609186020E944D1A0895CC
:1038C00080918C02833009F463C030F48130E1F1DF
:1038D000823009F4A0C008958A3009F48CC08B307E
:1038E00009F471C0893009F052C080918B02813295
:1038F00009F04DC080918F0290919002009719F0CD
:10390000029709F044C08091E800877F8093E80027
:103910008091E80082FF37C09091F3008091F2001F
:10392000029731F48091F100813011F0863021F45A
:103930008091F100809372028091E8008B778093F0
:10394000E8000E94901F23C080918B02813AF9F415
:103950008091E800877F8093E80080918F029091AA
:103960009002892B61F460E282E592E070E00E94AF
:103970009F1E8091E8008B778093E800089560E0B7
:1039800090E080E0F3CF80918A028111C1CF089549
:1039900080918B02813AD9F780918F0290919002A9
:1039A000892BA9F78091E800877F8093E8008091B8
:1039B000E80080FFFCCF809116018093F100809198
:1039C000E8008E77BCCF80918B02813201F7809125
:1039D0008F0290919002892BD1F68091E800877F29
:1039E0008093E8000E94901F80918D0280931601C1
:1039F0000E947B07089580918B02813241F680916D
:103A0000E800877F8093E8000E94901F80918E02DB
:103A100080937302089580918B02813A09F0B7CFA9
:103A20008091E800877F8093E8008091E80080FF24
:103A3000FCCF80917302C1CF84B7877F84BF0FB65C
:103A4000F894A8958091600088618093600010923E
:103A500060000FBE80E890E00FB6F894809361009C
:103A6000909361000FBE0E94661A08950E94E01FA5
:103A70000E943D20E2EEF0E08081846080837894B3
:103A80000E94BC2208958AE091E00E9417190895CF
:103A900080918A02853031F480918A02853019F054
:103AA0000E94E11A08950E94B61A80918802882324
:103AB00099F30E94731A882379F30E94EB1D0E94E8
:103AC0007B07EACFA0E2B0E0E8E6FDE10C94082332
:103AD00080918A02843009F583E08093E900809127
:103AE000E80082FF1AC08091E80090E085FF09C0DD
:103AF00050E040E060E270E0CE0101960E94501E6E
:103B000091E08091E8008B778093E800992329F079
:103B100060E2CE0101960E94BD14A096E2E00C94F2
:103B200024230E94941D0895292F33272330310523
:103B300021F168F42130310509F443C02230310508
:103B400009F444C090E080E030E020E026C021325B
:103B5000310551F122323105A9F76330710590F733
:103B6000FB01EE0FFF1FE757FE4F208131816A579F
:103B70007E4FFB01808190E010C099278130910534
:103B800081F0009729F00297E9F6E0E1F2E002C047
:103B9000ECE2F2E0849190E09F01FA01318320830E
:103BA0000895E0E2F2E0F6CF6330710558F6660F53
:103BB000771FFB01E157FE4F2081318189E090E0C2
:103BC000ECCF82E190E02BE832E0E7CF8BE590E0AC
:103BD00020E332E0E2CF80E189BD82E189BD09B412
:103BE00000FEFDCF8091D8008F7D8093D80080911A
:103BF000E00082608093E0008091E00081FDFCCFD6
:103C00000895AF92BF92CF92DF92FF920F931F93CE
:103C1000CF93DF936C01EB018A010E94AF1FF82E56
:103C2000811123C00115110539F0F80180819181BE
:103C3000C81BD90BC80ED91EB12CA12C2097A9F0F6
:103C40008091E80085FD22C08091E8008E77809306
:103C5000E80001151105A1F0F80180819181A80EFD
:103C6000B91EB182A08285E0F82E8F2DDF91CF9111
:103C70001F910F91FF90DF90CF90BF90AF9008956C
:103C80000E94AF1F8823D1F2F82EEFCFF601819169
:103C90006F018093F1002197FFEFAF1ABF0ACECFDB
:103CA000AF92BF92CF92DF92FF920F931F93CF9369
:103CB000DF936C01EB018A010E94AF1FF82E811186
:103CC00023C00115110539F0F80180819181C81BCD
:103CD000D90BC80ED91EB12CA12C2097A9F0809128
:103CE000E80085FD22C08091E8008B778093E80092
:103CF00001151105A1F0F80180819181A80EB91E6E
:103D0000B182A08285E0F82E8F2DDF91CF911F9197
:103D10000F91FF90DF90CF90BF90AF9008950E94D9
:103D2000AF1F8823D1F2F82EEFCF8091F100F6017A
:103D300081936F012197FFEFAF1ABF0ACECFFC012D
:103D4000809191029091920286179707A0F06115D9
:103D5000710529F49091E8009E779093E80090E037
:103D60006115710551F4911108C08091E80082FF3E
:103D700034C080E00895BC01F2CF80918A0288238C
:103D8000C1F18530C1F18091E80083FD30C08091A0
:103D9000E80082FDEACF8091E80080FFE1CF8091CA
:103DA000F3002091F200382F6115710519F02830C9
:103DB000310558F091E02830310509F090E020916C
:103DC000E8002E772093E800CBCF81918093F1001B
:103DD000615071092F5F3F4FE7CF80918A0288239E
:103DE00041F0853041F08091E80083FFBECF81E053
:103DF000089582E0089583E00895FC018091910286
:103E00009091920286179707A0F06115710529F429
:103E10008091E8008E778093E80090E0611571054D
:103E200051F4911108C08091E80082FF35C080E014
:103E30000895BC01F2CF80918A028823C9F18530B0
:103E4000C9F18091E80083FD31C08091E80082FDD6
:103E5000EACF8091E80080FFE1CF8091F3002091CC
:103E6000F200382F6115710519F02830310558F02E
:103E700091E02830310509F090E08091E8008E77DC
:103E80008093E800CBCF84918093F100319661500C
:103E900071092F5F3F4FE6CF80918A02882341F05E
:103EA000853041F08091E80083FFBDCF81E0089527
:103EB00082E0089583E00895982F973028F08F705E
:103EC0008093E90081E008959093E900242F762FF4
:103ED00050E0981731F07091EC002091ED00509176
:103EE000F00021FD02C09F5FE8CF3091EB003E7FE4
:103EF0003093EB003091ED003D7F3093ED00309139
:103F0000EB0031603093EB007093EC002093ED00F8
:103F10005093F0002091EE0027FDE5CF80E008955A
:103F200080918B0287FF13C08091E80082FF06C05A
:103F30008091E8008B778093E80004C080918A022A
:103F40008111F2CF089580918A028823D9F380915C
:103F5000E80080FFF8CF8091E8008E77ECCF2091C9
:103F6000E4003091E50095E6A9012091EC00822F54
:103F7000817020FF06C08091E80080FF06C080E0CD
:103F800008952091E80022FD1AC080918A028823BA
:103F900089F0853089F08091EB0085FD0FC020917C
:103FA000E4003091E50042175307F9F29150E1F631
:103FB00084E0089582E0089583E0089581E0089503
:103FC0000E944F200E945720E0EEF0E08081816047
:103FD0008083E8EDF0E080818F77808319BCA7EDC6
:103FE000B0E08C918E7F8C9380818F7E8083109245
:103FF000890208950F931F93CF93DF930E944F2060
:104000000E945720C8EDD0E088818F77888388810F
:104010008068888388818F7D888319BC10928A028A
:1040200010928602109288021092870200EE10E031
:10403000F80180818B7F808388818160888342E062
:1040400060E080E00E945C1FE1EEF0E080818E7F06
:104050008083E2EEF0E080818160808380818860EF
:104060008083F80180818E7F80838881806188834E
:10407000DF91CF911F910F910895E8EDF0E08081DD
:104080008F7E8083E7EDF0E080818160808384E033
:1040900082BF81E0809389020E94FA1F0895E8EDB3
:1040A000F0E080818E7F80831092E200089510926C
:1040B000DA001092E10008951F920F920FB60F924E
:1040C00011242F933F934F935F936F937F938F931D
:1040D0009F93AF93BF93EF93FF938091E10082FF93
:1040E0000BC08091E20082FF07C08091E1008B7FCE
:1040F0008093E1000E94BB228091DA0080FF19C00A
:104100008091D80080FF15C08091DA008E7F809367
:10411000DA008091D90080FF96C080E189BD82E1FC
:1041200089BD09B400FEFDCF81E080938A020E9420
:10413000191C8091E10080FF19C08091E20080FF8E
:1041400015C08091E2008E7F8093E2008091E200B2
:1041500080618093E2008091D80080628093D800D3
:1041600019BC85E080938A020E942D1C8091E10099
:1041700084FF2BC08091E20084FF27C080E189BDCD
:1041800082E189BD89B5982F917080FFFBCF809126
:10419000D8008F7D8093D8008091E1008F7E80933E
:1041A000E1008091E2008F7E8093E2008091E20046
:1041B00081608093E20080918602882309F449C0DF
:1041C00084E080938A020E94361C8091E10083FF84
:1041D00029C08091E20083FF25C08091E100877FA4
:1041E0008093E10082E080938A021092860280919F
:1041F000E1008E7F8093E1008091E2008E7F8093CA
:10420000E2008091E20080618093E20042E060E0A1
:1042100080E00E945C1F8091F00088608093F00035
:104220000E942A1CFF91EF91BF91AF919F918F91B6
:104230007F916F915F914F913F912F910F900FBEA2
:104240000F901F90189519BC10928A020E94271C8B
:1042500070CF8091E30087FD93E090938A02B3CF03
:104260001F920F920FB60F9211242F933F934F93EB
:104270005F936F937F938F939F93AF93BF93CF93EE
:10428000DF93EF93FF93D091E900DF708091EC0012
:10429000C82FC17080FDC0E81092E9008091F00045
:1042A000877F8093F00078940E9474211092E90037
:1042B0008091F00088608093F000CD2BCF70C09388
:1042C000E900FF91EF91DF91CF91BF91AF919F9165
:1042D0008F917F916F915F914F913F912F910F90AF
:1042E0000FBE0F901F901895AAE2B0E0EAE7F1E246
:1042F0000C9407238BE892E02091F100FC012193BC
:10430000CF01F2E083399F07B9F70E94601C8091CA
:10431000E80083FF1EC180918B0290918C029A303D
:1043200008F017C1E92FF0E0ED54FC4D0C94EB229E
:10433000803899F0823809F00CC180918F028F701B
:10434000873008F006C18093E9008091EB0085FB7F
:10435000882780F91092E90006C080918702909129
:104360008802911182609091E800977F9093E80015
:104370008093F1001092F1008091E8008E77E5C003
:10438000882309F4D3C0823009F0E3C080918D0204
:104390008111D6C080918F028F702FEF280F2630A9
:1043A00008F0D7C08093E9002091EB0020FFC8C03F
:1043B000933031F48091EB0080628093EB00C0C0B9
:1043C0009091EB0090619093EB0021E030E001C010
:1043D000220F8A95EAF72093EA001092EA00809172
:1043E000EB008860EACF8111B4C010918D021F7775
:1043F0008091E3008078812B8093E3008091E80036
:10440000877F8093E8000E94901F8091E80080FFE2
:10441000FCCF8091E30080688093E30082E011117B
:1044200083E080938A0295C08058823008F091C062
:1044300080918D0290918E028C3D23E09207A1F530
:1044400083E08A838AE289834FB7F894DE0113966A
:1044500020E03EE051E2E32FF0E050935700E4917A
:1044600020FF03C0E295EF703F5FEF708E2F90E06A
:10447000EA30C0F0C7968D939D932F5F243159F792
:104480004FBF8091E800877F8093E8006AE270E088
:10449000CE0101960E949F1E8091E8008B77809349
:1044A000E80057C0C096E7CF60918F0270919002EC
:1044B000AE014F5F5F4F0E94911DBC01892B09F433
:1044C00048C09091E800977F9093E80089819A8195
:1044D0000E94FD1EE1CF8038E1F58091E800877FE2
:1044E0008093E800809186028093F10045CF81118E
:1044F00030C090918D02923060F58091E800877F06
:104500008093E800909386020E94901F809186021B
:10451000882311F084E005C08091E30087FDFACF85
:1045200081E080938A020E94411C13C080918D0219
:10453000813079F481E0933009F080E08093880243
:104540001092E9008091E800877F8093E8000E9444
:10455000901F8091E80083FF0AC08091E800877F68
:104560008093E8008091EB0080628093EB00AA9634
:10457000E3E00C9423230895CF9380918A0288234B
:10458000A1F0C091E900CF709091EC00892F81706B
:1045900090FD80E8C82B1092E9008091E80083FD2F
:1045A0000E947421CF70C093E900CF91089597FBCA
:1045B000072E16F4009407D077FD09D00E942F2310
:1045C00007FC05D03EF4909581959F4F0895709516
:1045D00061957F4F0895EE0FFF1F0590F491E02D38
:1045E00009946927962769277827872778270895C8
:1045F0002F923F924F925F926F927F928F929F92F3
:10460000AF92BF92CF92DF92EF92FF920F931F93E0
:10461000CF93DF93CDB7DEB7CA1BDB0B0FB6F89491
:10462000DEBF0FBECDBF09942A88398848885F84D1
:104630006E847D848C849B84AA84B984C884DF8042
:10464000EE80FD800C811B81AA81B981CE0FD11D26
:104650000FB6F894DEBF0FBECDBFED010895AA1BC3
:10466000BB1B51E107C0AA1FBB1FA617B70710F05D
:10467000A61BB70B881F991F5A95A9F7809590958F
:10468000BC01CD010895FB01DC0104C08D910190B6
:10469000801921F441505040C8F7881B990B0895A8
:1046A000F999FECF92BD81BDF89A992780B50895FA
:1046B000A8E1B0E042E050E00C948423262FF99961
:1046C000FECF92BD81BDF89A019700B4021639F071
:1046D0001FBA20BD0FB6F894FA9AF99A0FBE089542
:1046E0000396272F0E945F230E945E23252F0E949E
:1046F0005F23242F0C945F230196272F0E945F23B2
:104700000C945E23DC01CB01FC01F999FECF06C0BD
:10471000F2BDE1BDF89A319600B40D92415050407F
:10472000B8F70895F894FFCF70057005A105A105AD
:104730002E064A06D005D0055506BC06CB06CB068C
:10474000CF14DB1402150E1519152415271527157E
:104750002715271527152A152E153615431550151B
:104760005315561563159821C021A922C021A922ED
:0A477000F3211422A9226B22772204
:10477A000202280850011E0A1401561B7B1B5A1BF1
:10478A00EA1BE51B591B01E200E900EA00B500B685
:10479A0000B700CD008301CC008A01920194012167
:1047AA0002230224022502260227022A02B300B4A7
:1047BA00006F007000818283E200E900EA00B50020
:1047CA00B600B700CD008301CC008A0192019401A2
:1047DA002102230224022502260227022A02B3000A
:1047EA00B4006F007000818283919066F4F5F6330D
:1047FA00323697F731944022B675039D02BF0242C2
:06480A00025B027B0200CC
:00000001FF
